:020000040800F2
:10000000F818002065020008552A0008B1240008ED
:10001000512A0008CF0300088531000800000000C5
:10002000000000000000000000000000CD010008FA
:10003000E50300080000000011020008A52A0008DE
:100040007F0200087F0200087F0200087F0200088C
:100050007F0200087F0200087F0200087F0200087C
:100060007F0200087F0200087F0200087F0200086C
:100070007F020008D50300087F0200087F02000805
:100080007F0200087F0200087F0200087F0200084C
:100090007F0200087F0200087F0200087F0200083C
:1000A0007F0200087F0200087F0200087F0200082C
:1000B000412B0008512B0008612B00087F0200082B
:1000C0007F0200087F0200087F0200087F0200080C
:1000D0007F0200087F0200087F02000875310008D7
:1000E0007F0200087F0200087F0200087F020008EC
:1000F0007F0200087F0200087F0200087F020008DC
:100100007F0200087F020008712B00087F020008B0
:100110007F0200087F020008812B0008912B000855
:100120007F0200087F0200087F0200087F020008AB
:1001300000F002F800F03AF80AA090E8000C8244BF
:100140008344AAF10107DA4501D100F02FF8AFF29C
:10015000090EBAE80F0013F0010F18BFFB1A43F0A5
:1001600001031847D03F0000F03F0000103A24BFC1
:1001700078C878C1FAD8520724BF30C830C144BF0C
:1001800004680C607047000000230024002500264E
:10019000103A28BF78C1FBD8520728BF30C148BFEA
:1001A0000B6070471FB51FBD10B510BD00F0DAF829
:1001B0001146FFF7F7FF03F003F800F0F8F803B477
:1001C000FFF7F2FF03BC00F0FBF80000224B1968B8
:1001D0000868B0E8F00F80F30988BFF36F8F4FF025
:1001E000000080F311884EF00D0E704700000000F3
:1001F00006480068006880F3088862B661B6BFF3FD
:100200004F8FBFF36F8F00DF00BF00BF08ED00E02E
:10021000EFF30980BFF36F8F0F4B1A6820E9F00FDF
:10022000106008B54FF0500080F31188BFF34F8F76
:10023000BFF36F8F03F0B4FC4FF0000080F3118820
:10024000BDE8084019680868B0E8F00F80F3098835
:10025000BFF36F8F704700BF1C000020EFF30580D5
:10026000704700000948804709480047FEE7FEE75D
:10027000FEE7FEE7FEE7FEE7FEE7FEE7FEE7FEE756
:1002800004480549054A064B704700003F2B00080B
:1002900031010008F8120020F8180020F81400209E
:1002A000F814002010B5203AC0F00B80B1E81850C7
:1002B000203AA0E81850B1E81850A0E81850BFF450
:1002C000F5AF5FEA027C24BFB1E81850A0E81850EF
:1002D00044BF18C918C0BDE810405FEA827C24BF43
:1002E00051F8043B40F8043B08BF7047D20728BFD1
:1002F00031F8023B48BF11F8012B28BF20F8023B20
:1003000048BF00F8012B70474FF0000200B51346BC
:1003100094469646203922BFA0E80C50A0E80C5025
:10032000B1F12001BFF4F7AF090728BFA0E80C50D6
:1003300048BF0CC05DF804EB890028BF40F8042BCF
:1003400008BF704748BF20F8022B11F0804F18BF3C
:1003500000F8012B7047704770477047004870479E
:10036000941200207546FFF7F9FFAE460500694676
:10037000534620F00700854618B020B5FFF780FFF0
:10038000BDE820404FF000064FF000074FF0000896
:100390004FF0000B21F00701AC46ACE8C009ACE817
:1003A000C009ACE8C009ACE8C0098D46704710B57B
:1003B0000446AFF300802046BDE81040FFF7FFBEC3
:1003C00001491820ABBEFEE726000200704700BFBF
:1003D000FEE7000010B5024800F008F910BD00006B
:1003E00018050020704772B600BFFEE701460022E4
:1003F00091F82100022808D00420886300BF002063
:1004000081F8200000BF012070470868006820F0D4
:100410000E000B6818600868006820F001000B6887
:10042000186091F8403001209840CB6B5860012053
:1004300081F8210000BF002081F8200000BF104695
:10044000E2E7000070B50446002594F82100022878
:1004500003D00420A0630125C1E02068006820F0DB
:100460000E00216808602068006820F00100216803
:1004700008605C492068884252D95A497839206816
:10048000884201D1012047E05649643920688842FA
:1004900001D1102040E0534950392068884201D1F1
:1004A000801539E04F493C392068884201D18014D9
:1004B00032E04C4928392068884202D14FF480301C
:1004C0002AE0484914392068884202D14FF480104C
:1004D00022E044492068884201D140041CE042499E
:1004E0002068884201D1012016E03F49143120687C
:1004F000884201D110200FE03B4928312068884212
:1005000001D1801508E038493C312068884201D18A
:10051000801401E04FF480303349091F086051E036
:10052000304978392068884201D1012047E02D49BF
:1005300064392068884201D1102040E029495039AF
:100540002068884201D1801539E026493C3920686D
:10055000884201D1801432E022492839206888423B
:1005600002D14FF480302AE01E49143920688842B5
:1005700002D14FF4801022E01A492068884201D14C
:1005800040041CE018492068884201D1012016E08F
:10059000154914312068884201D110200FE012491A
:1005A00028312068884201D1801508E00E493C318D
:1005B0002068884201D1801401E04FF4803009495D
:1005C00080394860012084F8210000BF002084F8B1
:1005D000200000BF606B10B12046616B8847284641
:1005E00070BD0000800002400804024070B504465F
:1005F000E06B05682068066894F840100420884085
:100600002840002875D006F004000028FAD02068A1
:10061000006800F0200028B92068006820F004007D
:1006200021680860D5492068884254D9D34978396F
:100630002068884201D1042049E0D049643920680B
:10064000884201D1402042E0CC495039206888429C
:1006500001D100153BE0C9493C392068884202D1EC
:100660004FF4804033E0C54928392068884202D1E0
:100670004FF480202BE0C14914392068884202D110
:100680004FF4800023E0BD492068884201D1C004B6
:100690001DE0BB492068884201D1042017E0B84919
:1006A00014312068884201D1402010E0B44928313B
:1006B0002068884201D1001509E0B1493C31206829
:1006C000884202D14FF4804001E04FF48020AC49D1
:1006D000091F086054E0A94978392068884201D18F
:1006E00004204AE0A54964392068884202D14020AC
:1006F00043E04CE0A14950392068884201D10015FF
:100700003BE09E493C392068884202D14FF480404A
:1007100033E09A4928392068884202D14FF480207A
:100720002BE0964914392068884202D14FF48000AA
:1007300023E092492068884201D1C0041DE090491D
:100740002068884201D1042017E08D4914312068C7
:10075000884201D1402010E0894928312068884230
:1007600001D1001509E086493C312068884202D158
:100770004FF4804001E04FF4802080498039486088
:10078000E06A002802D02046E16A8847F4E094F845
:100790004010022088402840002871D006F0020056
:1007A0000028FAD02068006800F0200040B92068D6
:1007B000006820F00A0021680860012084F8210008
:1007C0006E492068884254D96C497839206888423B
:1007D00001D1022049E0694964392068884201D189
:1007E000202042E0654950392068884201D14015F7
:1007F0003BE062493C392068884202D14FF4005006
:1008000033E05E4928392068884202D14FF4003035
:100810002BE05A4914392068884202D14FF4001065
:1008200023E056492068884201D180041DE05449E4
:100830002068884201D1022017E051491431206814
:10084000884201D1202010E04D492831206888429B
:1008500001D1401509E04A493C312068884202D163
:100860004FF4005001E04FF400304549091F086083
:1008700054E0424978392068884202D102204AE097
:1008800057E03E4964392068884201D1202042E087
:100890003A4950392068884201D140153BE0374938
:1008A0003C392068884202D14FF4005033E033498C
:1008B00028392068884202D14FF400302BE02F49BC
:1008C00014392068884202D14FF4001023E02B49EC
:1008D0002068884201D180041DE0294920688842AF
:1008E00001D1022017E0264914312068884201D145
:1008F000202010E0224928312068884201D140158B
:1009000009E01F493C312068884202D14FF4005071
:1009100001E04FF4003019498039486000BF0020E1
:1009200084F8200000BFA06A30B32046A16A88473F
:1009300022E094F84010082088402840E0B106F0FA
:100940000800C8B12068006820F00E002168086027
:1009500094F8401001208840E16B48600120A063BA
:1009600084F8210000BF002084F8200000BF206B25
:1009700010B12046216B884770BD00008000024006
:10098000080402400146002209B9012070471E4BAD
:10099000086898420BD21D4B0868C01A1423B0FB9C
:1009A000F3F08000086419480838C8630AE0164B61
:1009B0000868C01A1423B0FBF3F0800008641248E2
:1009C0000838C863022081F821000868026843F6ED
:1009D000F0708243D1E901031843CB6818430B69D7
:1009E00018434B6918438B691843CB69184302437A
:1009F0000868026000208863012081F8210000203F
:100A000081F8200000BFC1E708040240080002404E
:100A10002DE9F847024600239C467BE14FF0010890
:100A200008FA03F4D1F8008008EA0400A0427DD15E
:100A3000DFF8F4A2D1F80480A8EB0A09D0453AD037
:100A400014DCB8F1030F50D009DCB8F1000F31D03D
:100A5000B8F1010F1CD0B8F1020F49D120E0B8F174
:100A6000110F18D0B8F1120F42D11EE0B9F5881F4E
:100A700025D006DCB9F5803F20D0B9F5801F37D1ED
:100A80001AE0B9F5001F18D0B9F5041F30D117E0EE
:100A9000D1F80CC02DE0D1F80C8008F1040C28E04E
:100AA000D1F80C8008F1080C23E0D1F80C8008F193
:100AB0000C0C1EE000BF00BF00BF00BF00BF00BFA6
:100AC000D1F80880B8F1000F02D14FF0040C0BE010
:100AD000D1F80880B8F1010F03D14FF0080C146170
:100AE00002E04FF0080C546103E04FF0000C00E00E
:100AF00000BF00BFFF2801D8904601E002F10408C2
:100B00004646FF2802D84FEA830803E0A3F108080D
:100B10004FEA88084746D6F800804FF00F0909FAD7
:100B200007F928EA09080CFA07F900E07AE048EA30
:100B30000908C6F80080D1F8048008F08058B8F1A0
:100B4000805F6FD100BFDFF8E481D8F8188048F0EB
:100B50000108DFF8D891C9F81880C846D8F818807D
:100B600008F00108CDF8008000BF00BF4FEAB93897
:100B70004FEA930958F829504FEA83784FEA1879D9
:100B80004FF00F0808FA09F825EA0805DFF8A081F8
:100B9000424502D14FF0000824E0DFF89881424539
:100BA00002D14FF001081DE0DFF88C81424502D1EF
:100BB0004FF0020816E0DFF88481424502D14FF081
:100BC00003080FE0DFF87881424502D14FF00408B6
:100BD00008E0DFF87081424502D14FF0050801E0DE
:100BE0004FF006084FEA83794FEA197908FA09F8B5
:100BF00048EA0505DFF850814FEA930948F8295083
:100C0000D1F8048008F48018B8F5801F0BD1DFF804
:100C10003C81D8F8008048EA0008DFF83091C9F834
:100C200000800AE075E0DFF82481D8F8008028EA27
:100C30000008DFF81891C9F80080D1F8048008F4A2
:100C40000018B8F5001F0ED1DFF8008108F1040884
:100C5000D8F8008048EA0008DFF8F09009F10409AC
:100C6000C9F800800DE0DFF8E48008F10408D8F846
:100C7000008028EA0008DFF8D49009F10409C9F8D7
:100C80000080D1F8048008F40038B8F5003F0ED198
:100C9000DFF8B880A8F10408D8F8008048EA000816
:100CA000DFF8A890A9F10409C9F800800DE0DFF889
:100CB0009C80A8F10408D8F8008028EA0008DFF832
:100CC0008C90A9F10409C9F80080D1F8048008F4D7
:100CD0008038B8F5803F0ED1DFF87080A8F10808A1
:100CE000D8F8008048EA0008DFF86090A9F1080908
:100CF000C9F800800DE0DFF85480A8F10808D8F8A2
:100D0000008028EA0008DFF84490A9F10809C9F832
:100D100000805B1CD1F8008028FA03F8B8F1000FBE
:100D20007FF47CAEBDE8F88700001110001002408F
:100D300000080140000C0140001001400014014077
:100D400000180140001C0140080001400804014057
:100D50000AB1016101E00B040361704701480068BA
:100D6000704700000C000020034800680349097820
:100D700008440149086070470C000020140000205E
:100D800010B50848006840F01000064908600320CC
:100D900000F0E2F80F2000F007F800F05FF8002004
:100DA00010BD0000002002402DE9F04188B004464B
:100DB0000027B846002600BF2348C06940F0200045
:100DC0002149C8610846C06900F02000019000BFB9
:100DD00000BF02A903A800F099F9069F1FB900F00F
:100DE000BDF9054602E000F0B9F945001748B5FB2A
:100DF000F0F0A0F1010816481649086040F2E7310A
:100E00001448C160C0F804800021016181608161E3
:100E100000F0B8FC064696B90E4800F01DFD0646E7
:100E20006EB9372000F04AF8102C07D20022214674
:100E3000372000F053F80848046000E001263046EF
:100E400008B0BDE8F08100000010024040420F00F1
:100E5000001400405C0500201000002008B500BF11
:100E60001448806940F00100124988610846806991
:100E700000F00100009000BF00BF00BF0846C0693D
:100E800040F08050C8610846C06900F08050009072
:100E900000BF00BF00220F21901E00F01FF800BF0E
:100EA0000549486820F0E06040F00070486000BFED
:100EB00008BD000000100240000001400146084645
:100EC000002809DB00F01F0301229A4043099B0020
:100ED00003F1E023C3F8002100BF70472DE9F05F64
:100EE00080460D461646002702F04EF90746394661
:100EF0002A46334601F00700C0F1070ABAF1040F91
:100F000002D94FF0040A01E0C0F1070AD14600F10E
:100F1000040ABAF1070F02D24FF0000A01E0A0F173
:100F2000030AD4464FF0010A0AFA09FAAAF1010AA3
:100F30000AEA020A0AFA0CFA4FF0010B0BFA0CFB50
:100F4000ABF1010B0BEA030B4AEA0B0421464046C6
:100F500002F022F9BDE8F09F00BF00F00702064B47
:100F600019684FF6FF031940044B0B4343EA022173
:100F7000014B196000BF70470CED00E00000FA055E
:100F800070B504460D460CB9012070BD5A48006882
:100F900000F00700A8420ED25748006820F0070072
:100FA0002843554908600846006800F00700A84239
:100FB00001D00120E9E7207800F0020002281DD1CD
:100FC000207800F00400042805D14C48406840F423
:100FD000E0604A494860207800F00800082805D100
:100FE0004648406840F4605044494860434840687F
:100FF00020F0F000A168084340494860207800F0E4
:10100000010078B36068012806D13C48006800F40C
:10101000003090B90120B8E76068022806D137484F
:10102000006800F0007040B90120AEE73348006866
:1010300000F0020008B90120A7E73048406820F01E
:101040000300616808432D494860FFF787FE0646A4
:1010500009E0FFF783FE801B41F28831884202D904
:10106000032092E707E02548406800F00C00616823
:10107000B0EB810FEDD12048006800F00700A842D6
:101080000ED91D48006820F0070028431A4908605F
:101090000846006800F00700A84201D0012074E76C
:1010A000207800F00400042807D11448406820F498
:1010B000E060E168084311494860207800F00800CA
:1010C000082808D10D48406820F46050216940EAA2
:1010D000C1000A49486000F061F808494968C1F355
:1010E0000311074A515CC840064908600648006879
:1010F000FFF75AFE002048E700200240001002409F
:10110000F640000818000020100000200F220260A6
:101110000D4A526802F0030242600B4A526802F024
:10112000F0028260084A526802F4E062C260064A35
:10113000526802F46052D2080261044A126802F056
:1011400007020A60704700000010024000200240C1
:1011500001480068704700001800002000B5FFF744
:10116000F7FF04494968C1F30221034A515CC840B2
:1011700000BD0000001002400641000800B5FFF766
:10118000E7FF04494968C1F3C221034A515CC840E2
:1011900000BD0000001002400641000870B50021AB
:1011A0000022002400230020134D696801F00C0583
:1011B000F5B1042D02D0082D19D101E00F4819E036
:1011C0000F4DC1F38346AB5D01F4803555B10A4D37
:1011D0006D68C5F340450B4E725D084D5D43B5FB30
:1011E000F2F402E0084D03FB05F4204602E000BFE4
:1011F000024800BF00BF70BD0010024000127A001C
:10120000E4400008F440000800093D00F8B5044639
:101210000CB90120F8BD207800F00100002878D03A
:10122000F848406800F00C0004280CD0F5484068ED
:1012300000F00C00082811D1F248406800F480301A
:10124000B0F5803F0AD1EF48006800F40030002874
:101250005FD0606800285CD10120DBE700BF6068D8
:10126000B0F5803F06D1E748006840F48030E5499A
:10127000086028E0606858B9E248006820F48030CF
:10128000E04908600846006820F4802008601AE001
:101290006068B0F5A02F0BD1DA48006840F48020D8
:1012A000D84908600846006840F4803008600AE0C9
:1012B000D448006820F48030D249086008460068AD
:1012C00020F48020086000BF606888B1FFF746FD09
:1012D000054606E0FFF742FD401B642801D90320C4
:1012E00098E7C848006800F400300028F2D010E009
:1012F000FFF734FD054606E0FFF730FD401B64288C
:1013000001D9032086E7BF48006800F400300028B8
:10131000F2D1207800F00200022857D1B948406885
:1013200000F00C0050B1B748406800F00C000828ED
:1013300018D1B448406800F4803098B9B1480068CA
:1013400000F0020020B12069012801D0012061E7EE
:10135000AC48006820F0F800616940EAC100A94982
:10136000086033E02069E8B10120A7490860FFF771
:10137000F5FC054606E0FFF7F1FC401B022801D909
:10138000032047E79F48006800F002000028F2D0E1
:101390009C48006820F0F800616940EAC100994962
:1013A000086013E0002098490860FFF7D7FC054665
:1013B00006E0FFF7D3FC401B022801D9032029E7F0
:1013C0009048006800F002000028F2D1207800F078
:1013D000080008282DD1A069B8B101208B49086008
:1013E000FFF7BCFC054606E0FFF7B8FC401B0228EF
:1013F00001D903200EE78348406A00F0020000286C
:10140000F2D0012001F028FB13E000207F490860A2
:10141000FFF7A4FC054606E0FFF7A0FC401B0228EE
:1014200001D90320F6E67748406A00F00200002860
:10143000F2D1207800F00400042873D1002771480D
:10144000C06900F0805070B900BF6E48C06940F0BC
:1014500080506C49C8610846C06900F08050009017
:1014600000BF00BF01276A48006800F48070B0B96F
:101470006748006840F4807065490860FFF76EFCBB
:10148000054606E0FFF76AFC401B642801D90320EB
:10149000C0E65F48006800F480700028F2D000BF0A
:1014A000E068012806D15748006A40F0010055491C
:1014B000086227E0E06858B95248006A20F001004D
:1014C000504908620846006A20F00400086219E0EA
:1014D000E06805280BD14B48006A40F004004949F8
:1014E00008620846006A40F0010008620AE04548C8
:1014F000006A20F00100434908620846006A20F0B3
:101500000400086200BFE068A0B1FFF727FC0546B1
:1015100009E0FFF723FC401B41F28831884202D9E1
:10152000032077E622E03748006A00F00200002836
:10153000EFD012E0FFF712FC054608E0FFF70EFCC3
:10154000401B41F28831884201D9032062E62D48D0
:10155000006A00F002000028F0D1012F05D12948CF
:10156000C06920F080502749C86100BFE069C8B356
:101570002448406800F00C00082860D0E069022888
:1015800048D1002020490866FFF7E8FB054606E041
:10159000FFF7E4FB401B022801D903203AE6194873
:1015A000006800F000700028F2D1206AB0F5803F9A
:1015B00007D11448406820F40030A168084311495D
:1015C0004860D4E9080108430E49496821F47411C0
:1015D00008430C49486001200B490866FFF7BEFB31
:1015E000054607E03DE0FFF7B9FB401B022801D9A3
:1015F00003200FE60348006800F000700028F2D0D6
:101600002FE00000001002400000424280044242ED
:1016100000700040002014490866FFF79FFB054654
:1016200006E0FFF79BFB401B022801D90320F1E5F0
:101630000E48006800F000700028F2D111E0E06967
:10164000012800D1E6E50948466806F48031206AA1
:10165000814204D106F47011606A814201D00120F8
:10166000D8E50020D6E5000000004242001002400C
:101670007047704710B50346002200BF93F83C0046
:10168000012801D1022010BD012083F83C0000BFD9
:1016900022F0FF00CC6840EA040222F440708C681B
:1016A00040EA040222F480604C6840EA040222F41A
:1016B00000600C6840EA040222F480500C6940EAA1
:1016C000040222F400504C6940EA040222F48040F3
:1016D000CC6940EA04021868426400BF002083F825
:1016E0003C0000BF00BFCEE730B502460B4600BF4E
:1016F00092F83C00012801D1022030BD012082F87F
:101700003C0000BF022082F83D0010684468106869
:10171000816824F070041868044310684460144D14
:101720001068A84213D0134D1068A8420FD010685B
:10173000B0F1804F0BD0104D1068A84207D00F4D6C
:101740001068A84203D00E4D1068A84205D121F0C0
:1017500080015868014310688160012082F83D00D3
:1017600000BF002082F83C0000BF00BFC5E70000BA
:10177000002C0140003401400004004000080040FB
:10178000000C004010B504460CB9012010BD94F8BF
:101790003D0028B9002084F83C00204600F026F8DF
:1017A000022084F83D00211D206801F0F9F9012094
:1017B00084F8460000BF84F83E0001213F20015517
:1017C000402001554120015500BF00BF012084F891
:1017D000420043200155442001554520015500BFDA
:1017E000012084F83D000020D0E7000038B5044611
:1017F0001649206888420DD100BF1548806940F421
:101800000060134988610846806900F40060009018
:1018100000BF19E00F492068884215D100BF0C486D
:10182000C06940F010000A49C8610846C06900F06C
:101830001000009000BF00BF002206213620FFF7F5
:101840004DFB3620FFF73AFB38BD0000002C01406D
:101850000010024000100040014691F83D000128B0
:1018600001D001207047022081F83D000868C0685F
:1018700040F001000B68D860164B0868984213D0FE
:10188000154B086898420FD00868B0F1804F0BD014
:10189000124B0868984207D0114B0868984203D051
:1018A000104B086898420CD10868806800F0070265
:1018B000062A0CD00868006840F001000B68186028
:1018C00005E00868006840F001000B68186000201F
:1018D000C8E70000002C0140003401400004004033
:1018E00000080040000C00402DE9F04104460D4680
:1018F000002700BF94F83C00012802D10220BDE877
:10190000F081012084F83C0000BF022084F83D00F3
:101910002068866826F0770626F47F462068866071
:101920002868502833D00CDC202850D004DC002854
:101930004BD0102851D149E0302849D040284CD113
:1019400039E060282DD0702807D0B0F5805F03D033
:10195000B0F5005F41D10DE041E0D5E902136A68BE
:10196000206801F073F92068866846F077062068E1
:10197000866034E0D5E902136A68206801F066F9F0
:101980002068806840F480402168886027E0EA6829
:101990006968206801F04AFA5021206801F061F975
:1019A0001DE0EA686968206801F053FA6021206848
:1019B00001F057F913E0EA686968206801F036FA27
:1019C0004021206801F04DF909E000BF00BF00BFD1
:1019D0002968206801F045F901E0012700BF00BF38
:1019E000012084F83D0000BF002084F83C0000BFC7
:1019F000384684E72DE9F04104460D4614B901202C
:101A0000BDE8F08194F83D0028B9002084F83C003E
:101A1000204600F051F8022084F83D0020688068DC
:101A200044F20701884321688860211D206801F085
:101A3000B7F82068D0F80880206886692068076AAF
:101A4000286840EA080840F203308643A969A8687C
:101A500040EA0120064340F60C4086434FF2F00076
:101A60008643E969E86840EA0120064328690001E5
:101A7000296A40EA0130064327F02207696968684D
:101A800040EA011007432068C0F80880206886619A
:101A900020680762012084F8460084F83E00012196
:101AA0003F200155012084F84200432001550120C8
:101AB00084F83D000020A3E710B586B0044600205E
:101AC00002900390049005902068B0F1804F4ED1B1
:101AD00000BF7148C06940F001006F49C861084605
:101AE000C06900F00100019000BF00BF00BF0846C0
:101AF000806940F0040088610846806900F00400B5
:101B0000019000BF00BF00BF0846806940F0080098
:101B100088610846806900F00800019000BF00BF9E
:101B20004FF40040029000200390049002A95B480B
:101B3000FEF76EFF0820029000200390049002A997
:101B40005748FEF765FF00BF5649486820F44070CB
:101B500040F0E06040F48070486000BF0022052142
:101B60001C20FFF7BBF91C20FFF7A8F991E04E49B4
:101B7000206888422CD100BF4748C06940F002006D
:101B80004549C8610846C06900F00200019000BFE5
:101B900000BF00BF0846806940F004008861084625
:101BA000806900F00400019000BF00BFC0200290D7
:101BB00000200390049002A93848FEF729FF002274
:101BC00005211D20FFF78AF91D20FFF777F960E056
:101BD0003649206888422CD100BF2F48C06940F0A8
:101BE00004002D49C8610846C06900F00400019056
:101BF00000BF00BF00BF0846806940F00800886150
:101C00000846806900F00800019000BF00BFC020B6
:101C1000029000200390049002A92148FEF7F8FEEC
:101C2000002205211E20FFF759F91E20FFF746F973
:101C30002FE01F49206888422BD100BF1648C06999
:101C400040F008001449C8610846C06900F0080067
:101C5000019000BF00BF00BF0846806940F004004B
:101C600088610846806900F00400019000BF00BF51
:101C70000320029000200390049002A90748FEF779
:101C8000C7FE002205213220FFF728F93220FFF796
:101C900015F906B010BD0000001002400008014018
:101CA000000C01400000014000040040000800401A
:101CB000000C0040704770B504462068C568206875
:101CC000066906F00200022819D105F00200022878
:101CD00015D1401F216808610120207720688069A4
:101CE00000F0030018B12046FFF7E4FF05E02046AE
:101CF00000F0E6F8204600F0B1F90020207706F069
:101D00000400042819D105F00400042815D1C043AB
:101D100021680861022020772068806900F4407003
:101D200018B12046FFF7C6FF05E0204600F0C8F8CE
:101D3000204600F093F90020207706F008000828DC
:101D400019D105F00800082815D1C04321680861A1
:101D5000042020772068C06900F0030018B12046F5
:101D6000FFF7A8FF05E0204600F0AAF8204600F0A3
:101D700075F90020207706F01000102819D105F021
:101D80001000102815D1C043216808610820207771
:101D90002068C06900F4407018B12046FFF78AFF40
:101DA00005E0204600F08CF8204600F057F90020AE
:101DB000207706F0010048B105F0010030B16FF066
:101DC000010021680861204600F04AF906F0800011
:101DD000802809D105F08000802805D1C043216802
:101DE00008612046FFF744FC06F04000402809D176
:101DF00005F04000402805D1C04321680861204615
:101E000000F03AF906F02000202809D105F0200062
:101E1000202805D1C043216808612046FFF729FC2E
:101E200070BD000010B586B00446002002900390FB
:101E3000049005901D492068884218D100BF1C48B5
:101E4000806940F004001A4988610846806900F002
:101E50000400019000BF00BF4FF4706002900220A8
:101E60000390059002A91348FEF7D2FD1BE012492A
:101E70002068884217D100BF0D48806940F01000EB
:101E80000B4988610846806900F01000019000BF8E
:101E900000BF4FF47070029002200390059002A9D9
:101EA0000648FEF7B5FD06B010BD0000002C01404D
:101EB00000100240000801400034014000100140C1
:101EC00070472DE9F04104460D461646002700BF35
:101ED00094F83C00012802D10220BDE8F0810120E5
:101EE00084F83C0000BF36B1042E1BD0082E31D040
:101EF0000C2E5ED145E02946206800F0BBFE20682C
:101F0000806940F00800216888612068806920F0BD
:101F10000400216888612068806929690843216874
:101F2000886148E02946206800F0DCFE206880696E
:101F300040F40060216888612068806920F4806036
:101F40002168886120688069296940EA0120216848
:101F5000886130E02946206800F002FF2068C069EF
:101F600040F008002168C8612068C06920F00400C2
:101F70002168C8612068C069296908432168C8616F
:101F800019E02946206800F027FF2068C06940F466
:101F900000602168C8612068C06920F48060216801
:101FA000C8612068C069296940EA01202168C861C8
:101FB00001E0012700BF00BF00BF002084F83C0003
:101FC00000BF384689E710B504460CB9012010BDA2
:101FD00094F83D0028B9002084F83C00204600F029
:101FE00025F8022084F83D00211D206800F0D8FD6E
:101FF000012084F8460000BF84F83E0001213F2004
:102000000155402001554120015500BF00BF01206E
:1020100084F84200432001554420015545200155D4
:1020200000BF012084F83D000020D0E708B5094A30
:10203000016891420DD100BF0749896941F40051FF
:10204000054A91611146896901F40051009100BF70
:1020500000BF08BD0034014000100240704700007E
:1020600010B5044603492068884201D1FEF77CFE82
:1020700010BD00000014004070477047704700001A
:102080002DE9F84F0446206805682068C668206876
:1020900047694FF00009CA4605F00F09B9F1000F72
:1020A0000AD105F0200038B106F0200020B120460A
:1020B00000F033FFBDE8F88FB9F1000F7BD007F0D7
:1020C000010018B906F49070002874D005F00100E2
:1020D00030B106F4807018B1606C40F001006064AB
:1020E00005F0040030B107F0010018B1606C40F059
:1020F0000200606405F0020030B107F0010018B181
:10210000606C40F00400606405F0080048B106F01F
:10211000200010B907F0010018B1606C40F0080011
:102120006064606C002845D005F0200028B106F0FE
:10213000200010B1204600F0F0FE20684069C0F396
:10214000801A606C00F0080010B9BAF1000F2CD0B2
:10215000204600F09CFE2068406900F0400000B37B
:1021600000BF00BF2168143151E8001F21F040007A
:102170002168143141E80002002AF3D100BFE06B6E
:1021800050B17748E16B4863E06BFEF75BF988B1CB
:10219000E06B416B88470DE02046FFF76FFF09E0D9
:1021A00009E02046FFF76AFF04E02046FFF766FFDC
:1021B000002060647EE7206B012877D105F01000D5
:1021C000002873D006F010000028FAD000BF0020CD
:1021D000009020680068009020684068009000BF70
:1021E00000BF2068406900F0400000285FD0E06B2D
:1021F000006840681FFA80F8B8F1000F55D0A08D34
:10220000404552DDA4F82E80E06B8069202843D041
:1022100000BF00BF21680C3151E8001F21F480701D
:1022200021680C3141E80002002AF3D100BF00BF51
:1022300000BF2168143151E8001F21F0010021681E
:10224000143141E80002002AF3D100BF00BF00BFF3
:102250002168143151E8001F21F040002168143139
:1022600041E80002002AF3D100BF202084F8420098
:102270000020206300BF00BF21680C3151E8001F1F
:1022800021F0100021680C3141E80002002AF3D14E
:1022900000BFE06BFEF7AAF802206063A08DE28D1C
:1022A000801A81B22046FFF7E8FE03E742E0A08DE6
:1022B000E18D401A1FFA80F8E08DD0B3B8F1000F1D
:1022C00037D000BF00BF21680C3151E8001F21F456
:1022D000907021680C3141E80002002AF3D100BF60
:1022E00000BF00BF2168143151E8001F21F0010038
:1022F0002168143141E80002002AF3D100BF2020F8
:1023000084F842000020206300BF00BF21680C3128
:1023100051E8001F21F0100021680C3141E8000253
:10232000002AF3D100BF0220606341462046FFF738
:10233000A4FEBFE605F0800030B106F0800018B1C1
:10234000204600F0E7FEB5E605F0400030B106F0AB
:10235000400018B1204600F0D0FDABE600BFA9E672
:102360007B2E000810B504460CB9012010BDA069F1
:1023700000B100E000BF94F8410028B9002084F8C3
:102380004000204600F02AF8242084F8410020680C
:10239000C06820F400502168C860204600F03CFE70
:1023A0002068006920F49040216808612068406935
:1023B00020F02A00216848612068C06840F400507D
:1023C0002168C86000206064202084F8410084F8FF
:1023D00042000020606300BFC8E7000010B586B06F
:1023E0000446002002900390049005902A4920683A
:1023F00088424FD100BF2948C06940F48020274956
:10240000C8610846C06900F48020019000BF00BF89
:1024100000BF0846806940F008008861084680696E
:1024200000F00800019000BF00BF081502900220D4
:1024300003900320059002A91948FEF7E9FA4FF42A
:102440000060029000200390049002A91448FEF757
:10245000DFFA14481449086000204860002112483F
:1024600081608021C1600021016141618161C161A0
:10247000FEF788FA08B1FDF7B6FF00BF0A48E0632F
:10248000446200BF002205212720FEF727FD2720F8
:10249000FEF714FD06B010BD0048004000100240D9
:1024A000000C0140300002401805002070477047C2
:1024B00000BFFEE708B500BF0A48406940F00100D0
:1024C000084948610846406900F00100009000BFDB
:1024D00000BF002205210D20FEF700FD0D20FEF7B4
:1024E000EDFC08BD0010024000B595B01C22124959
:1024F0000EA8FDF7D7FE00210EA800F097FE0F49A9
:1025000008601C220C491C3107A8FDF7CBFE0021F6
:1025100007A800F08BFE0A4908601C2206493831E2
:102520006846FDF7BFFE0021684600F07FFE0549C2
:10253000086015B000BD00009040000800000020B9
:10254000040000200800002000B585B000200190A4
:1025500002900390049000BF2348806940F020005F
:10256000214988610846806900F02000009000BF82
:1025700000BF00BF0846806940F00400886108463B
:10258000806900F00400009000BF00BF00BF084653
:10259000806940F0080088610846806900F0080002
:1025A000009000BF00BF00BF0846806940F01000E7
:1025B00088610846806900F01000009000BF00BFED
:1025C000002230210948FEF7C3FB30200190012092
:1025D0000290002003900220049001A90348FEF716
:1025E00017FA05B000BD00000010024000080140CD
:1025F00000B595B0002011901290139014900F9098
:1026000010901C2108A8FDF77FFE20216846FDF7E9
:102610007BFE39483949086040F2CF2048600021EC
:102620003648816040F2CF71C16000210161416193
:102630008161FFF7A7F808B1FDF7D5FE4FF4805090
:10264000119011A92D48FFF74FF908B1FDF7CBFE06
:102650002A48FFF7B8FC08B1FDF7C5FE00200F902F
:1026600010900FA92548FFF73FF808B1FDF7BBFE12
:1026700060200890002009900A900B900C900D901B
:102680000E90002208A91D48FFF71BFC08B1FDF7BA
:10269000AAFE32200990042208A91848FFF711FC6D
:1026A00008B1FDF7A0FE00200990082208A91348F0
:1026B000FFF707FC08B1FDF796FE0C2208A90F48AA
:1026C000FFF7FFFB08B1FDF78EFE002000900190A0
:1026D0000290039004904FF4005005900020079062
:1026E00069460648FEF7C6FF08B1FDF77CFE0348C1
:1026F000FFF798FB15B000BD002C0140D802002068
:1027000000B58BB0242102A8FDF7FEFD002000904B
:1027100001904FF080401749086000204860002178
:102720001448816044F62061C1600021016181612B
:1027300003200290002003900120049000200590C7
:102740000690079001200890002009900A9002A9A5
:102750000848FFF74FF908B1FDF745FE002000904B
:10276000019069460348FEF7BFFF08B1FDF73BFE45
:102770000BB000BD2003002000B58BB0242102A8BF
:10278000FDF7C2FD0020009001901848184908602C
:102790000020486000211648816044F62061C16035
:1027A000002101618161032002900020039001203B
:1027B00004900020059006900790012008900020CA
:1027C00009900A9002A90A48FFF714F908B1FDF729
:1027D0000AFE00200090019069460548FEF784FF3C
:1027E00008B1FDF700FE0BB000BD00000004004082
:1027F0006803002000B58BB0242102A8FDF784FDFA
:102800000020009001901848184908600020486096
:1028100000211648816044F62061C16000210161F9
:102820008161032002900020039001200490002089
:1028300005900690079001200890002009900A90CA
:1028400002A90A48FFF7D6F808B1FDF7CCFD002031
:102850000090019069460548FEF746FF08B1FDF774
:10286000C2FD0BB000BD000000080040B003002016
:1028700000B58BB0242102A8FDF746FD0020009092
:102880000190184818490860002048600021164847
:10289000816044F62061C1600021016181610320F3
:1028A00002900020039001200490002005900690E3
:1028B000079001200890002009900A9002A90A4878
:1028C000FFF798F808B1FDF78EFD00200090019009
:1028D00069460548FEF708FF08B1FDF784FD0BB017
:1028E00000BD0000000C0040F80300201CB50020D3
:1028F000009001900E480F49086040F2CF204860D8
:1029000000210C48816042F20F71C1600021816199
:10291000FEF738FF08B1FDF766FD0020009001903A
:1029200069460448FEF7E0FE08B1FDF75CFD1CBDFA
:10293000001000404004002000B591B000200F902E
:1029400010901C2108A8FDF7DFFC20216846FDF748
:10295000DBFC2F482F4908600020486000212D48EB
:1029600081604FF46161C160002101614161816159
:10297000FFF729FB08B1FDF736FD00200F901090FE
:102980000FA92448FEF7B0FE08B1FDF72CFD60202A
:102990000890002009900A900B900C900D900E90DA
:1029A000002208A91B48FFF78CFA08B1FDF71BFDB0
:1029B000042208A91748FFF784FA08B1FDF713FDB0
:1029C000082208A91348FFF77CFA08B1FDF70BFDB0
:1029D0000C2208A90F48FFF774FA08B1FDF703FDB0
:1029E0000020009001900290039004904FF400505A
:1029F00005900020079069460648FEF73BFE08B1A7
:102A0000FDF7F1FC0348FFF70DFA11B000BD00001F
:102A1000003401408804002010B50B480B490860C1
:102A20004FF416504860002108488160C160016180
:102A30000C21416100218161C161FFF793FC08B164
:102A4000FDF7D1FC10BD000000480040D00400207C
:102A500000BFFEE700BFFEE708B508490968C908DE
:102A60004FF47A72B1FBF2F14143009100BF00BF15
:102A700000994A1E00920029F9D108BD18000020D3
:102A800000BF012000F0C1FBFBE710B500BF012033
:102A900000F0BBFBFBE710B500BF012000F0B5FB69
:102AA000FBE7000010B500BF502080F31188BFF392
:102AB0004F8FBFF36F8F00BF01F0C4F918B14FF013
:102AC00080500449086000BF002080F3118800BFD7
:102AD00010BD000004ED00E000B58FB0282105A86E
:102AE000FDF712FC14216846FDF70EFC012005904D
:102AF00000040690002007900120099002200C900D
:102B0000C1030D914FF4E0110E9105A8FEF77EFB75
:102B100008B1FDF768FC0F20009002200190002012
:102B200002904FF4806003900020049002216846D8
:102B3000FEF726FA08B1FDF756FC0FB000BD70474E
:102B400010B50248FFF7B7F810BD000020030020C1
:102B500010B50248FFF7AFF810BD00006803002071
:102B600010B50248FFF7A7F810BD0000B003002021
:102B700010B50248FFF79FF810BD0000F8030020D1
:102B800010B50248FFF797F810BD00004004002080
:102B900010B50248FFF78FF810BD00005C0500205B
:102BA00010B50268244B98420ED0244B98420BD0AB
:102BB000B0F1804F08D0224B984205D0214B98426B
:102BC00002D0214B984203D122F070024B681A4385
:102BD000194B98420ED0194B98420BD0B0F1804F50
:102BE00008D0174B984205D0164B984202D0164B8E
:102BF000984203D122F44072CB681A4322F080033A
:102C00004C6943EA040202608B68C3620B6883620A
:102C1000094B984202D0094B984201D10B690363DA
:102C200001234361036903F001031BB1036923F02E
:102C30000103036110BD0000002C0140003401407D
:102C40000004004000080040000C004030B50C4675
:102C5000816821F47F4142EA0325254329438160AD
:102C600030BD0A46816821F0700142F00703194324
:102C70008160704730B5026A056A25F0010505627A
:102C80004368846924F0700424F003040D682C4325
:102C900022F002028D682A43104DA84200D103E0C1
:102CA0000F4DA84206D100BF22F00802CD682A438A
:102CB00022F00402094DA84202D0094DA84207D1D2
:102CC00023F4807323F400734D692B438D692B43E8
:102CD000436084614D684563026230BD002C014051
:102CE0000034014030B5026A056A25F0100505621E
:102CF0004368846924F4E04424F440740D6844EA91
:102D0000052422F020028D6842EA0512124DA842E5
:102D100000D103E0114DA84207D100BF22F080028C
:102D2000CD6842EA051222F040020B4DA84202D0C3
:102D30000A4DA84209D123F4806323F400634D694E
:102D400043EA85038D6943EA8503436084614D68E6
:102D50008563026230BD0000002C01400034014058
:102D600030B5026A056A25F4807505624368C46956
:102D700024F0700424F003040D682C4322F4007244
:102D80008D6842EA0522124DA84200D103E0114DA0
:102D9000A84207D100BF22F40062CD6842EA0522B2
:102DA00022F480620A4DA84202D00A4DA84209D1FD
:102DB00023F4805323F400534D6943EA05138D69CE
:102DC00043EA05134360C4614D68C563026230BDC8
:102DD000002C01400034014030B5036A056A25F437
:102DE000805505624468C26922F4E04222F44072D0
:102DF0000D6842EA052223F400538D6843EA053347
:102E0000084DA84202D0084DA84204D124F48044C1
:102E10004D6944EA85144460C2614D6805640362EB
:102E200030BD0000002C01400034014030B50B469D
:102E30001446026A056A25F001050562816921F0E0
:102E4000F00141EA041122F00A021A438161026290
:102E500030BD30B50B461446026A056A25F01005F0
:102E60000562816921F4704141EA043122F0A00237
:102E700042EA03128161026230BD70B505466C6A98
:102E80000020E085E0842046FFF7F8F870BD00BF21
:102E900000BF02680C3252E8002F22F490710268E1
:102EA0000C3242E80013002BF3D100BF00BF00BF7B
:102EB0000268143252E8002F22F001010268143235
:102EC00042E80013002BF3D100BF016B01290ED1A2
:102ED00000BF00BF02680C3252E8002F22F0100140
:102EE00002680C3242E80013002BF3D100BF20210E
:102EF00080F8421000210163704710B50446206835
:102F0000C06820F040002168C860202084F841009B
:102F10002046FFF7CCFA002010BDF8B5044694F81F
:102F20004200222875D1A068B0F5805F0CD12069DD
:102F300050B90025A66A20684068C0F308003080B8
:102F4000A06A801CA06215E0A56A0026A068B0F502
:102F5000805F03D0A06828B9206918B9206840684C
:102F6000287004E02068406800F07F002870A06AA4
:102F7000401CA062E08D401E80B2E085002846D152
:102F80002068C06820F020002168C8602068C06800
:102F900020F480702168C8602068406920F001003A
:102FA00021684861202084F8420000206063206B83
:102FB000012826D10020206300BF00BF21680C310A
:102FC00051E8001F21F0100021680C3141E8000297
:102FD000002AF3D100BF2068006800F0100010281C
:102FE0000AD100BF0020009020680068009020688F
:102FF0004068009000BF00BFA18D2046FFF73DF85C
:1030000002E02046FFF752FA0020F8BD01E0002060
:10301000FBE70220F9E7000070B504462168096962
:1030200021F44051E2681143226811612269A168CC
:103030001143626941EA02052168C96841F20C62E4
:10304000914329432268D1602168496921F4407184
:10305000A2691143226851612D4A2168914202D12F
:10306000FEF78CF801E0FEF779F800EBC00101EB08
:10307000001162689200B1FBF2F100EBC00202EBBA
:10308000001263689B00B2FBF3F26423B2FBF3F21D
:1030900002EBC20303EB0212A1EB8201322202EB2C
:1030A00001116422B1FBF2F101F0F00100EBC0026A
:1030B00002EB001263689B00B2FBF3F26423B2FBE5
:1030C000F3F201EB021200EBC00101EB00116368A7
:1030D0009B00B1FBF3F100EBC00303EB0013666848
:1030E000B600B3FBF6F36426B3FBF6F303EBC306BB
:1030F00006EB0313A1EB8301322303EB01116423DD
:10310000B1FBF3F101F00F0111442268916070BD31
:1031100000380140014691F84100212828D18868F3
:10312000B0F5805F0BD1086948B90A6A1088C0F30E
:1031300008000B685860086A801C086205E00B6A8A
:10314000581C086218780B685860C88C401E80B202
:10315000C88458B90868C06820F080000B68D8603F
:103160000868C06840F040000B68D86000207047D5
:103170000220FCE710B50248FEF782FF10BD0000F8
:10318000D004002000BFFEE702480068C0F3022020
:10319000704700000CED00E010B5002804DB0A07C2
:1031A000130E054A135406E00A07140E034A00F0F2
:1031B0000F031B1FD45410BD00E400E018ED00E025
:1031C000FDF7DEFDFFF788FCFFF7BEF9FFF772F9A8
:1031D000FFF70EFAFFF794FAFFF7CEFAFFF70AFBB4
:1031E000FFF746FBFFF782FBFFF7A6FBFFF714FC98
:1031F000FFF77AF900F015F800BFFEE7014600205E
:10320000842901D0CA1C1044704770B50446254675
:103210000DB1294600E00121084600F033FC0020F2
:1032200070BD10B500F05CFC002010BD7FB50446F9
:103230000D46606998B1A06988B1B4F90800FFF73C
:10324000DDFF0646D4E90510CDE9006102902B466A
:103250002269D4E9001000F097FD039013E0B4F95F
:103260000800FFF7CBFF064603A8CDE90060238ADC
:103270009AB22B46D4E9001000F054FD012802D088
:10328000002004B070BD0398FBE700002DE9F04179
:1032900005460E461C4807681C480068001D00F0E3
:1032A000EDFA50B91948006890F82C1001208840B8
:1032B00017490968814316480160681C38B936B15E
:1032C00012480168091D134800F022FB1AE07C191E
:1032D0000E4800684460BC4207D20C480168091DD2
:1032E0000D48006800F0FAFA0CE008480168091D72
:1032F0000A48006800F0F2FA09480068844201D2E6
:1033000007480460BDE8F081300000201C00002068
:10331000340000208006002024000020200000202F
:103320004C00002010B5044600F0FEFA2348006867
:10333000401C224908602248006840B920480460C7
:103340000846006801280DD100F03EF90AE01D484A
:10335000006838B91A480068C06AE16A884201D832
:103360001748046018480068401C1749086094F822
:103370002C1001208840154909680843134908604A
:10338000E16A01EB8101124A02EB8100211D00F08C
:10339000BFFA00F0F3FA0B48006868B1084800680B
:1033A000C06AE16A884207D24FF08050094908603C
:1033B000BFF34F8FBFF36F8F10BD00002C000020B4
:1033C0001C000020380000204800002034000020AD
:1033D000A405002004ED00E010B516E000F0A4FA0A
:1033E0000C48C068C468201D00F048FA0A4800680C
:1033F000401E0949086009480068401E07490860E6
:1034000000F0BCFA204600F00BF8044800680028E1
:10341000E4D110BD6C0600202C0000202800002004
:1034200010B5044694F8510030B9206B00F0C4FA8E
:10343000204600F0C1FA1AE094F85100012803D1A7
:10344000204600F0B9FA12E094F85100022801D1A8
:10345000012000E0002050B900BF502080F3118807
:10346000BFF34F8FBFF36F8F00BF00BFFEE710BDEC
:1034700030B54FF44063174800F007042CB1C01D6D
:1034800020F00700134C041B1B1B0246124C226049
:103490000024114D6C60D018083820F007000F4C44
:1034A000206000240D4D2D686C600C4D2D682C6043
:1034B0001146441A4C60094C24680C60084D4C6855
:1034C0002C60084D4C682C604FF00044064D2C6079
:1034D00030BD00009406002058000020600000204D
:1034E00068000020640000207400002000BFFFF787
:1034F00073FF064800680128F9D94FF0805004494D
:103500000860BFF34F8FBFF36F8FF0E7A405002073
:1035100004ED00E02DE9FF5F81460E469246DDE9AD
:103520000E7B109CAAF10100216B01EB800828F0B2
:10353000070808F0070008B9012000E0002050B992
:1035400000BF502080F31188BFF34F8FBFF36F8F00
:1035500000BF00BFFEE786B1002507E0715D04F102
:1035600034004155705D00B902E06D1C102DF5D39B
:1035700000BF00214320015502E0002084F8340000
:10358000072F00D30627E76267640020A064201D90
:1035900000F0A1F904F1180000F09DF92461C7F1D1
:1035A0000700A06164620020E06484F8500049468E
:1035B0004046039A00F050F92060BBF1000F01D0A3
:1035C000CBF80040BDE8FF9F10B5002407E004EBF6
:1035D00084010F4A02EB810000F070F9641C072C93
:1035E000F5D30C4800F06AF90B4800F067F90B4876
:1035F00000F064F90A4800F061F90A4800F05EF949
:1036000004480949086004480849086010BD0000E2
:10361000A4050020300600204406002058060020A3
:103620006C060020800600202000002024000020DE
:1036300010B50146164800E0006803688B42FBD3D2
:103640000246436813448B4204D143684C682344C8
:10365000436001460A464B6813440468A34211D1F3
:103660000C4C03682468A34208D04B680468646863
:1036700023444B6003681B680B6005E0054B1B6827
:103680000B6001E003680B60884200D0016010BD50
:1036900058000020600000200A490968096809B93B
:1036A000012100E0002121B14FF0FF31064A1160F5
:1036B00006E004490968C968C868034A416811609E
:1036C00070470000200000204C0000200E480068D9
:1036D000401C08B9012000E0002050B900BF502074
:1036E00080F31188BFF34F8FBFF36F8F00BF00BF10
:1036F000FEE700BF502080F31188BFF34F8FBFF368
:103700006F8F00BF00BFFEE7780000202DE9F04179
:1037100004464FF0000800F03BFA4948006808B939
:10372000FFF7A6FE474800682040002870D1D4B1BA
:10373000083404F00700B0B104F00700C0F108003D
:10374000044404F0070008B9012000E0002050B94B
:1037500000BF502080F31188BFF34F8FBFF36F8FEE
:1037600000BF00BFFEE7002C52D0374800688442FB
:103770004ED8364E3046056801E02E462D68686802
:10378000A04202D228680028F7D12D48006885425F
:103790003ED0306800F10808286830606868001B77
:1037A000102819D92F1907F0070008B9012000E0E7
:1037B000002050B900BF502080F31188BFF34F8F15
:1037C000BFF36F8F00BF00BFFEE76868001B786023
:1037D0006C603846FFF72CFF1B4968680968081AB7
:1037E000194908600846006819490968884203D2E7
:1037F0001548006816490860124968680968084356
:1038000068600020286013480068401C1149086067
:1038100000F0BCFB08F0070008B9012000E0002020
:1038200050B900BF502080F31188BFF34F8FBFF312
:103830006F8F00BF00BFFEE74046BDE8F08100008B
:103840006000002074000020640000205800002068
:10385000680000206C000020001F4FF080730360A0
:10386000001F21F001030360001F034B03601438A5
:103870000260203870470000CD36000801460A6912
:10388000D1E901309860D1E901035860506888425D
:1038900001D188685060002008611068401E1060E7
:1038A00010687047034B0360034B0B608023136069
:1038B0007047000084000020D800002000F10801BB
:1038C00041604FF0FF31816000F10801C16001618A
:1038D00000210160704700210161704710B5024668
:1038E0000B685C1C0CB9106907E002F1080000E0ED
:1038F0004068446824689C42FAD944684C604C682B
:10390000A160886041600A611468641C146010BD85
:1039100042684A6093688B6093685960916008615F
:1039200003685B1C0360704700BF502080F3118860
:10393000BFF34F8FBFF36F8F00BF0E480068401C6E
:103940000C49086008460068012812D10A4800683E
:10395000C0B208B9012000E0002050B900BF5020DB
:1039600080F31188BFF34F8FBFF36F8F00BF00BF8D
:10397000FEE770477800002004ED00E00D48006885
:1039800050B900BF502080F31188BFF34F8FBFF3B1
:103990006F8F00BF00BFFEE706480068401E054964
:1039A00008600846006820B9002080F3118800BF35
:1039B00000BF70477800002070B506463546002EDF
:1039C00044D0083D2C46224960680968084008B187
:1039D000012000E0002050B900BF502080F3118882
:1039E000BFF34F8FBFF36F8F00BF00BFFEE72068AC
:1039F00008B9012000E0002050B900BF502080F33A
:103A00001188BFF34F8FBFF36F8F00BF00BFFEE77A
:103A10000F49606809680840C0B12068B0B90C4916
:103A2000606809688843606000F0B2F8094960681E
:103A300009680844074908602046FFF7F9FD064871
:103A40000068401C0449086000F0A0FA70BD000046
:103A500074000020640000207000002000204FF05F
:103A6000E02108618861064800684FF47A71B0FB74
:103A7000F1F0401E4FF0E0214861072008617047D7
:103A80001800002070B504460025D4B11248006823
:103A900008B9012000E0002050B900BF502080F399
:103AA0001188BFF34F8FBFF36F8F00BF00BFFEE7DA
:103AB00000F06EF800212046FFF7E8FB00F066FA00
:103AC00005463DB94FF0805004490860BFF34F8F61
:103AD000BFF36F8F70BD00005400002004ED00E0C4
:103AE00010B586B000200590049003AA04A905A88B
:103AF000FFF7D8FE0022DDE904101346CDE90021CE
:103B000002901CA11D48039A00F03EF91C49086070
:103B10000846006808B1012400E00024012C15D1FA
:103B200000BF502080F31188BFF34F8FBFF36F8F1A
:103B300000BF4FF0FF3013490860012012490860B0
:103B400000201249086000F071F810E0601C08B114
:103B5000012000E0002050B900BF502080F3118800
:103B6000BFF34F8FBFF36F8F00BF00BFFEE706B0FC
:103B700010BD000049444C4500000000ED34000831
:103B8000500000204C0000203800002030000020B1
:103B900002480068401C014908607047540000203A
:103BA0001D48006818B101201C49086032E000205F
:103BB0001A4908601A480068B0FA80F0C0F11F0185
:103BC00001EB8100174A52F8200008B1012000E003
:103BD000002050B900BF502080F31188BFF34F8FF1
:103BE000BFF36F8F00BF00BFFEE701EB81020D4BFB
:103BF00003EB820042685268426000F108024368A9
:103C0000934202D14268526842604268D268064BD1
:103C10001A6000BF704700005400002040000020E0
:103C200034000020A40500201C0000201CB53849E9
:103C3000084600780190FF200A4610700846007878
:103C400000909DF8000000F0F0009DF800209042E8
:103C500001D1012000E0002050B900BF502080F3C6
:103C60001188BFF34F8FBFF36F8F00BF00BFFEE718
:103C70009DF8000000F05000264A10700720264AE8
:103C8000106009E024480068401E234A10609DF837
:103C900000004006000E00909DF8000000F080003B
:103CA0008028EFD01C480068C0F10700042801D12B
:103CB000012000E0002050B900BF502080F311889F
:103CC000BFF34F8FBFF36F8F00BF00BFFEE71248F7
:103CD00000680002104A10601046008800F4E0609E
:103CE00010600B4A019810700C48006840F4700096
:103CF0000A4908600846006840F070400860FFF715
:103D0000ADFE002006490860FCF772FA00201CBDD9
:103D100000E400E07C0000208000002020ED00E0B6
:103D2000780000202DE9FF4F85B080468946174670
:103D3000DDE912ABB800FFF7E9FC064656B15420A6
:103D4000FFF7E4FC04460CB1266304E03046FFF7BD
:103D500033FE00E000248CB1002084F85100CDE94E
:103D600000ABCDE902403A4649464046089BFFF782
:103D7000D1FB2046FFF7D6FA012501E04FF0FF35D1
:103D8000284609B0BDE8F08F2DE9F04F85B0074611
:103D9000884691469A46DDE90EB6109C0EB1012088
:103DA00000E0002050B900BF502080F31188BFF31D
:103DB0004F8FBFF36F8F00BF00BFFEE70CB1012034
:103DC00000E0002050B900BF502080F31188BFF3FD
:103DD0004F8FBFF36F8F00BF00BFFEE754200390EB
:103DE0000398542801D1012000E0002050B900BF01
:103DF000502080F31188BFF34F8FBFF36F8F00BF48
:103E000000BFFEE700BFB4B1AEB125462C462E631D
:103E1000022085F85100002004A953464A46CDE906
:103E200000B1CDE9025041463846FFF773FB284602
:103E3000FFF778FA01E000200490049805B0BDE88F
:103E4000F08F00002DE9F0414FF000084448006871
:103E500000287CD143480068451C4248056015BBDA
:103E600041480068006808B9012000E0002050B90E
:103E700000BF502080F31188BFF34F8FBFF36F8FC7
:103E800000BF00BFFEE73848076838480068364979
:103E900008603648076036480068401C34490860AE
:103EA000FFF7FAFB00BF3348006885423CD300BFF0
:103EB0002D480068006808B9012000E0002020B10A
:103EC0004FF0FF302B4908602DE027480068C0689C
:103ED000C4686668B54202D22648066023E0201D09
:103EE000FFF7CCFCA06A18B104F11800FFF7C6FC7C
:103EF00094F82C10012088401F49096808431E4986
:103F00000860E16A01EB81011C4A02EB8100211D7E
:103F1000FFF7FEFC1A49E06A0968C96A8842C7D3FC
:103F20004FF00108C4E700BF15480068C06A00EB05
:103F30008000124951F82000012801D94FF00108F2
:103F40001048006808B14FF0010805E0FFE70E488F
:103F50000068401C0C4908604046BDE8F081000044
:103F60005400002030000020200000202400002009
:103F7000440000204C00002034000020A405002054
:103F80001C000020400000203C00002070B50024F0
:103F900000263648006850B900BF502080F31188D1
:103FA000BFF34F8FBFF36F8F00BF00BFFEE7FFF778
:103FB000BBFC2E480068401E2C490860084600687B
:103FC00000284FD12A48006800284BD024E0294817
:103FD000C068C46804F11800FFF750FC201DFFF70B
:103FE0004DFC94F82C1001208840234909680843AF
:103FF00021490860E16A01EB8101204A02EB81005E
:10400000211DFFF785FC1E49E06A0968C96A8842DC
:1040100002D301201B4908601648006808B9012036
:1040200000E000200028D2D00CB1FFF735FB164885
:10403000056865B100BFFFF705FF10B10120114908
:1040400008606D1E002DF6D100200F4908600D4854
:10405000006838B1012630070C490860BFF34F8F64
:10406000BFF36F8FFFF78AFC304670BD540000200D
:104070002C0000205806002034000020A405002059
:104080001C000020400000203C00002004ED00E067
:1040900028410008812A00080000000000000000FC
:1040A0008000000000000000000000001C4100082B
:1040B000972A0008FFFF00000000000080000000B9
:1040C0000000000000000000104100088B2A0008DA
:1040D000010000000000000080000000000000005F
:1040E0000000000002030405060708090A0B0C0D76
:1040F0000E0F10100102000000000000000001027D
:104100000304060708090000000001020304000080
:104110004D6F746F725F5461736B000053657276FC
:104120006F5461736B00000064656661756C745454
:1041300061736B00544100080000002084000000FF
:104140006C010008D84100088400002074180000A9
:1041500088010008000000000000000000000000CE
:1041600000000000100000000100000000127A00B2
:10417000000000000000000000000000000000003F
:10418000000000000000000000000000000000002F
:10419000000000000000000000000000000000001F
:1041A000000000000000000000000000000000000F
:1041B00000000000000000000000000000000000FF
:1041C000000000000000000000000000AAAAAAAA47
:0841D0000000000000000000E7
:0400000508000131BD
:00000001FF
