:020000040800F2
:10000000F8180020650200085B210008591C000850
:1000100059210008CF030008BD2600080000000099
:10002000000000000000000000000000CD010008FA
:10003000DD0300080000000011020008792100081B
:100040007F0200087F0200087F0200087F0200088C
:100050007F0200087F0200087F0200087F0200087C
:100060007F0200087F0200087F0200087F0200086C
:100070007F020008D10300087F0200087F02000809
:100080007F0200087F0200087F0200087F0200084C
:100090007F0200087F0200087F0200087F0200083C
:1000A0007F0200087F0200087F0200087F0200082C
:1000B00005220008112200081D2200087F02000806
:1000C0007F0200087F0200087F0200087F0200080C
:1000D0007F0200087F0200087F020008B1260008A6
:1000E0007F0200087F0200087F0200087F020008EC
:1000F0007F0200087F0200087F0200087F020008DC
:100100007F0200087F020008292200087F02000801
:100110007F0200087F020008352200084122000803
:100120007F0200087F0200087F0200087F020008AB
:1001300000F002F800F03AF80AA090E8000C8244BF
:100140008344AAF10107DA4501D100F02FF8AFF29C
:10015000090EBAE80F0013F0010F18BFFB1A43F0A5
:1001600001031847B8300000D8300000103A24BF0F
:1001700078C878C1FAD8520724BF30C830C144BF0C
:1001800004680C607047000000230024002500264E
:10019000103A28BF78C1FBD8520728BF30C148BFEA
:1001A0000B6070471FB51FBD10B510BD00F0D6F82D
:1001B0001146FFF7F7FF02F092FA00F0F4F803B4EB
:1001C000FFF7F2FF03BC00F0FBF80000224B1968B8
:1001D0000868B0E8F00F80F30988BFF36F8F4FF025
:1001E000000080F311884EF00D0E704700000000F3
:1001F00006480068006880F3088862B661B6BFF3FD
:100200004F8FBFF36F8F00DF00BF00BF08ED00E02E
:10021000EFF30980BFF36F8F0F4B1A6820E9F00FDF
:10022000106008B54FF0500080F31188BFF34F8F76
:10023000BFF36F8F02F0FEFD4FF0000080F31188D6
:10024000BDE8084019680868B0E8F00F80F3098835
:10025000BFF36F8F704700BF1C000020EFF30580D5
:10026000704700000948804709480047FEE7FEE75D
:10027000FEE7FEE7FEE7FEE7FEE7FEE7FEE7FEE756
:1002800004480549054A064B704700000322000850
:1002900031010008F8120020F8180020F81400209E
:1002A000F814002010B5203AC0F00B80B1E81850C7
:1002B000203AA0E81850B1E81850A0E81850BFF450
:1002C000F5AF5FEA027C24BFB1E81850A0E81850EF
:1002D00044BF18C918C0BDE810405FEA827C24BF43
:1002E00051F8043B40F8043B08BF7047D20728BFD1
:1002F00031F8023B48BF11F8012B28BF20F8023B20
:1003000048BF00F8012B70474FF0000200B51346BC
:1003100094469646203922BFA0E80C50A0E80C5025
:10032000B1F12001BFF4F7AF090728BFA0E80C50D6
:1003300048BF0CC05DF804EB890028BF40F8042BCF
:1003400008BF704748BF20F8022B11F0804F18BF3C
:1003500000F8012B7047704770477047754600F0F2
:100360002BF8AE4605006946534620F00700854647
:1003700018B020B5FFF784FFBDE820404FF000061D
:100380004FF000074FF000084FF0000B21F007017D
:10039000AC46ACE8C009ACE8C009ACE8C009ACE8C0
:1003A000C0098D46704710B50446AFF30080204663
:1003B000BDE81040FFF703BF0048704794120020CB
:1003C00001491820ABBEFEE7260002007047FEE799
:1003D000014800F0C1B8000018050020704772B64F
:1003E000FEE710B590F821100022022905D0042163
:1003F000816380F82020012010BD01680B6823F084
:100400000E030B6001680B6823F001030B6090F88A
:100410004030C46B012101FA03F3636080F82110BE
:1004200080F82020104610BD2DE9F05F90F82110D3
:100430000024022903D004218163012485E001689E
:100440000A6822F00E020A6001680A6822F00102BE
:100450000A603F4E3E4FB215DFF8F4C0DFF8F0906F
:10046000DFF8ECA0DFF8E8B0DFF8E4E00168783FFF
:1004700013011502ACF1640CA9F15009AAF13C0A70
:10048000ABF1280BAEF1140E4FF48018B14227D90E
:10049000B9420ED0614512D049451DD0514518D002
:1004A000594518D0714501D1424615E0294EB14257
:1004B00001D1012210E0274E1436B14201D11022A1
:1004C0000AE0244E2836B14206D0224A3C329142FC
:1004D00001D11A4600E02A461E49091F0A602BE096
:1004E000B94213D0614517D0494522D051451DD09E
:1004F00059451DD0714501D142461AE0B14202D1A1
:100500004FF0807215E0134EB14201D1012210E08C
:10051000104E1436B14201D110220AE00D4E283699
:10052000B14206D00B4A3C32914201D11A4600E05A
:100530002A46074980394A60012180F821100021AC
:1005400080F82010416B01B188472046BDE8F09F3C
:1005500080000240080402402DE9F05FC16B0A6888
:1005600001680B68046C4FF0040808FA04F8844D25
:10057000844E854FDFF814C2DFF81492DFF814A21E
:10058000DFF814B2DFF814E218EA020F65D05FEA70
:10059000437862D50A68920603D40A6822F00402FE
:1005A0000A60DFF8F0814FF48062016808F11408F6
:1005B00013011402414524D9A9420DD0B1420FD0F4
:1005C000B9421AD0614515D0494515D0514501D1E0
:1005D000120312E0594501D104220EE0714501D108
:1005E00040220AE06D4D1435A94206D06B4A2832EC
:1005F000914201D11A4600E022466749091F0A606C
:1006000029E0A94213D0B14215D0B94220D06145AA
:100610001BD049451BD0514502D14FF4800217E051
:10062000414502D14FF0806212E0594501D10422C8
:100630000EE0714501D140220AE0584D1435A9421F
:1006400006D0564A2832914201D11A4600E022468D
:100650004B4908394A60C16A71E04FF0020808FA54
:1006600004F818EA020F70D05FEA83786DD50A6843
:10067000920606D40A6822F00A020A60012180F874
:100680002110DFF810814FF40072016808F114089E
:1006900013011402414524D9A9420DD0B1420FD013
:1006A000B9421AD0614515D0494515D0514501D1FF
:1006B000120312E0594501D102220EE0714501D129
:1006C00020220AE0354D1435A94206D0334A28329B
:1006D000914201D11A4600E022462F49091F0A60C3
:1006E00029E0A94213D0B14215D0B94220D06145CA
:1006F0001BD049451BD0514502D14FF4001217E0E1
:10070000414502D14FF0007212E0594501D1022259
:100710000EE0714501D120220AE0204D1435A94296
:1007200006D01E4A2832914201D11A4600E02246E4
:10073000134908394A60002180F82010816A002995
:100740001CD0BDE8F05F0847FFE70825A54015422B
:1007500014D01A0712D50A6822F00E020A6090F827
:100760004020C36B012101FA02F25A60816380F8D4
:100770002110002180F82010016BE0E7BDE8F09F18
:10078000080002401C0002403000024044000240C9
:10079000580002406C000240080402401C04024061
:1007A00030B560B11A4B026814219A4209D2194B34
:1007B0001344B3FBF1F18900016417490AE00120F9
:1007C00030BD134B5B421344B3FBF1F1890001646C
:1007D0000F490839C163022180F82110136843F6DC
:1007E000F0718B43F0E901142143D0E902452C4319
:1007F0002143046921434469214384692143194306
:10080000116000214163012242770177084630BD23
:1008100008040240F8FFFDBF000002402DE9F84F38
:10082000DFF8C8910024A9F1040B23460F2709F132
:10083000040AABF1040ED1E00125A54006EA050249
:10084000AA4276D1DFF8A8C14E68A6EB0C0866452F
:100850002BD00DDC032E34D005DC36B3012E19D09D
:10086000022E2FD11BE0112E16D0122E2AD119E004
:10087000B8F5881F19D006DCB8F5803F15D0B8F55B
:10088000801F1FD111E0B8F5001F0ED0B8F5041F6E
:1008900018D10AE0CB6815E0CB681B1D12E0CB68CD
:1008A00008330FE0CB680C330CE08B682BB1012BC5
:1008B0004FF0080303D0456104E0042302E0056122
:1008C00000E00023FF2A01D8064601E000F10406FB
:1008D0004FEA840501D9A5F12005D6F8008007FA72
:1008E00005FC28EA0C0803FA05F548EA0508C6F8ED
:1008F00000804D68ED0070D53E4DAE6946F00106B2
:10090000AE61AD6924F0030605F0010500953A4D8E
:1009100006EB050CDCF80850A607360F07FA06F8B8
:1009200025EA0805DFF8D480404503D14FF00008E0
:1009300025E052E0DFF8C880404502D14FF00108C1
:100940001DE0DFF8C080404502D14FF0020816E0FC
:10095000DFF8B480404502D14FF003080FE0DFF824
:10096000AC80404502D14FF0040808E0DFF8A080D9
:10097000404502D14FF0050801E04FF0060808FAA3
:1009800006F848EA0508CCF808804D68D9F80060F8
:10099000ED024D4601D5164300E096432E604D68AA
:1009A000DAF80060AD02554601D5164300E09643E3
:1009B0002E604D68DBF80060AD035D4601D516433F
:1009C00000E096432E604D68DEF80060ED0375464A
:1009D00001D5164300E096432E60641C0A68164653
:1009E000E2407FF429AFBDE8F88F00000804014021
:1009F00000001110001002400000014000080140FA
:100A0000000C01400010014000140140001801409A
:100A1000001C01400AB1016170470904FBE70000B6
:100A200001488068704700000C000020024881687F
:100A300002781144816070470C000020074810B50F
:100A4000016841F010010160032000F0A7F80F20B9
:100A500000F006F800F050F8002010BD0020024021
:100A600030B505461F4887B0C16941F02001C1611A
:100A7000C06906A900F02000009001A800F036F936
:100A80000498B0B100F052F940001749174AB0FB82
:100A9000F1F11748491E0260416040F2E73200213F
:100AA000C0E903218160816100F080FB040003D074
:100AB00015E000F03BF9E8E70D4800F0CFFB04003B
:100AC0000DD1372000F03CF8102D07D20022294626
:100AD000372000F043F80748056000E0012407B024
:100AE000204630BD0010024040420F00001400407C
:100AF0005C050020100000200F4808B5816941F016
:100B000001018161816901F001010091C16941F038
:100B10008051C161C069002200F0805000900F2117
:100B2000901E00F01BF80548416821F0E06141F09B
:100B30000071416008BD000000100240000001404B
:100B4000002809DB00F01F020121914040098000CC
:100B500000F1E020C0F8001170470000F0B40E4B27
:100B60001B680C46C3F30223C3F10705042D00D90B
:100B70000425191D072901D2002300E0DB1E0126F0
:100B800006FA05F1491E214099409E40761E164006
:100B90003143F0BC01F093BD0CED00E0064900F0DC
:100BA000070208684FF6FF03184040EA0220034A94
:100BB00010430860704700000CED00E00000FA05EB
:100BC0002DE9F0470F46050061D0434E306800F034
:100BD0000700B84209D2306820F00700384330607F
:100BE000306800F00700B84251D128683B4C8107BB
:100BF00012D5400703D5606840F4E0606060287853
:100C0000000703D5606840F4605060606068A968C0
:100C100020F0F000084360602878C00728D068689A
:100C2000012810D02168022810D0890700292EDA67
:100C3000616821F0030101436160FFF7F1FE804626
:100C400041F288390DE021688903EFE78901EDE77A
:100C5000FFF7E6FEA0EB0801494502D90320BDE8F5
:100C6000F0876068696800F00C00B0EB810FEFD18D
:100C7000306800F00700B8420BD9306820F0070058
:100C800038433060306800F00700B84201D00120DE
:100C9000E5E72878400705D56068E96820F4E0605A
:100CA000084360602878000706D56068296920F449
:100CB000605040EAC100606000F058F86168084A7E
:100CC000C1F30311515CC84006490860064800683A
:100CD000FFF7C6FE0020C2E70020024000100240DD
:100CE000DE31000818000020100000200F220260F2
:100CF0000C4A536803F003034360536803F0F003A6
:100D00008360536803F4E063C36052684FF4E063A8
:100D100003EAD20202610448006800F0070008609C
:100D200070470000001002400020024004480549BE
:100D300000684968044AC1F30221515CC840704709
:100D40001800002000100240EE3100080448054958
:100D500000684968044AC1F3C221515CC840704729
:100D60001800002000100240EE3100080E4A5168C1
:100D70000E4801F00C03042B11D0082B0FD10C48A6
:100D8000C1F38343C903C05C0AD55168084AC1F363
:100D90004041921E515C054A5043B0FBF1F0704750
:100DA00004494843704700000010024000127A00D6
:100DB000CE31000800093D002DE9F84F040070D045
:100DC0002078C04DC00749D06868C0F38100012871
:100DD00007D06868C0F38100022809D16868C003A1
:100DE00006D52868800339D560680028E7D035E04B
:100DF0006068B0F5803F0BD010B1B0F5A02F11D0D6
:100E0000286820F480302860286820F4802002E0E0
:100E1000286840F480302860606890B1FFF700FED9
:100E200006460AE0286840F480202860F0E700BF0A
:100E3000FFF7F6FD801B642873D828688003F7D578
:100E40000CE0FFF7EDFD064605E000BFFFF7E8FD0B
:100E5000801B6428F0D828688003F7D420789A4E45
:100E600080074FF001094FF0000839D5686810F08D
:100E70000C0F07D06868C0F38100022809D16868A8
:100E8000C00306D42868800714D52069012808D13A
:100E900010E02069B0B1C6F80090FFF7C1FD074629
:100EA00005E00AE1FFF7BCFDC01B0228C4D8286892
:100EB0008007F7D52868616920F0F80040EAC10092
:100EC00028600DE0C6F80080FFF7AAFD074604E0A1
:100ED000FFF7A6FDC01B022823D828688007F7D497
:100EE000207800072CD57948A169D9B1C0F80090C5
:100EF000FFF796FD074604E0FFF792FDC01B0228AE
:100F00000FD8686A8007F7D571484FF4FA51006826
:100F1000B0FBF1F0009000BF0098411E0091FAD2A2
:100F20000EE080E0C0F80080FFF77AFD074604E09D
:100F3000FFF776FDC01B022875D8686A8007F7D4D2
:100F40002078400760D5E8690027C00008D4E86928
:100F500040F08050E861E869012700F0805000907F
:100F60005C480168C90513D40168834641F4807167
:100F70000160FFF755FD824606E000BFFFF750FD18
:100F8000A0EB0A0064284ED8DBF80000C005F5D5B8
:100F9000E06801280AD008B1052813D0286A20F09B
:100FA00001002862286A20F0040002E0286A40F06C
:100FB00001002862E06841F2883B98B1FFF730FDFC
:100FC00082460BE0286A40F004002862EEE700BF8A
:100FD000FFF726FDA0EB0A0159455AD8286A800779
:100FE000F6D50CE0FFF71CFD824605E0FFF718FD83
:100FF000A0EB0A0159454CD8286A8007F6D41FB1E6
:10100000E86920F08050E861E06988B36968C1F35D
:101010008101022944D00228C6F8608004D0FFF77D
:10102000FFFC044638E034E0FFF7FAFC074604E032
:10103000FFF7F6FCC01B02282BD828688001F7D4E4
:10104000206AB0F5803F05D16868A16820F40030BF
:1010500008436860D4E908010843696821F4741101
:1010600008436860C6F86090FFF7DAFC044606E0C3
:1010700025E000BFFFF7D4FC001B022809D8286830
:101080008001F7D51BE000BFFFF7CAFC001B022858
:1010900002D90320BDE8F88F28688001F4D40EE05F
:1010A0000128F7D06868226A00F48031914204D1A7
:1010B000616A00F47010884201D00120EAE7002044
:1010C000E8E7000000100240000042428004424273
:1010D00018000020007000407047704710B590F86D
:1010E0003C20012A22D0012280F83C20CA688C686A
:1010F00022F4407222434C6822F4806222430C683E
:1011000022F4006222430C6922F4805222434C698B
:1011100022F400522243C969002322F480420A4388
:1011200001684A6480F83C30002010BD022010BDE8
:1011300070B590F83C20012A2CD0012480F83C4066
:10114000022280F83D2003685A689D6822F07006EC
:101150000A6832435A60104B02689A420ED00F4B15
:101160009A420BD0B2F1804F08D00D4B9A4205D075
:101170000C4B9A4202D00C4B9A4204D1496825F09C
:1011800080031943916080F83D40002180F83C10B5
:10119000084670BD022070BD002C014000340140A3
:1011A0000004004000080040000C004010B504009E
:1011B00003D094F83D0010B107E0012010BD0020DD
:1011C00084F83C00204600F01FF8022084F83D001F
:1011D000211D206801F03AF8012084F8460084F8C7
:1011E0003E0084F83F0084F8400084F8410084F811
:1011F000420084F8430084F8440084F8450084F8F1
:101200003D00002010BD000008B5114A01681148DA
:10121000914208D1816941F400618161806900F4E3
:101220000060009008BD0C4A9142FBD1C16941F0B9
:101230001001C161C069002200F010000090062179
:101240003620FFF78BFCBDE808403620FFF778BC5E
:10125000002C0140001002400010004090F83D10AA
:10126000012901D001207047022180F83D1001685A
:10127000CA6842F00102CA6000680E4988420ED076
:101280000D4988420BD0B0F1804F08D00B498842FD
:1012900005D00B49884202D00A49884204D18168AE
:1012A00001F00701062903D0016841F00101016046
:1012B00000207047002C0140003401400004004031
:1012C00000080040000C004070B5044690F83C0057
:1012D0000025012817D0012684F83C60022084F8FC
:1012E0003D002068826822F0770222F47F4282600B
:1012F0000868502838D00DDC20284FD005DC90B38A
:10130000102811D14AE0022070BD302846D0402874
:101310000AD13BE060282FD070280DD0B0F5805F57
:1013200003D0B0F5005F12D0012584F83D600020A5
:1013300084F83C00284670BDCB68D1E901212068C3
:1013400000F0D2FF2068816841F0770109E0CB68A6
:10135000D1E90121206800F0C7FF2068816841F4CD
:1013600080418160E1E719E0CA684968206801F0BE
:101370008FF85021206806E0CA684968206801F0AB
:1013800098F86021206800F0B9FFCEE7CA68496884
:10139000206801F07DF840212068F4E722680146CA
:1013A0001046F0E72DE9F0410D46040003D094F813
:1013B0003D0018B108E00120BDE8F081002084F86C
:1013C0003C00204600F040F8022084F83D002068F0
:1013D000816844F2070291438160211D206800F07A
:1013E00035FF226890689169166A2B68AF690343DC
:1013F00040F20330814341EA0721A868EF690843BE
:101400004FF6FC418843E96840EA07200143286918
:101410002F6A000140EA0730084369686D6926F0C9
:10142000220646EA0515294393602268906154F824
:10143000460B0162012004F81F09E0752076E07672
:101440002077A0750020B7E730B585B00024009460
:1014500001940294039400684F49504B504DB0F1F1
:10146000804F23D04F4CC022A04256D1C86940F0D3
:101470000200C861C86900F002000490886940F069
:10148000040088618869694600F0040004900092B5
:101490001846FFF7C3F9002205211D20FFF75EFB68
:1014A0005FF01D00FFF74CFB05B030BDC86940F090
:1014B0000100C861C86900F001000490886940F02B
:1014C00004008861886900F004000490886940F095
:1014D000080088618869694600F0080004904FF4AC
:1014E000004000901846FFF799F90820CDE9000464
:1014F000694628460294FFF791F92B48416821F488
:10150000407141F0E06141F48071416000220521A9
:101510001C20FFF723FB1C20C4E7244CA0421BD156
:10152000C86940F00400C861C86900F00400049074
:10153000886940F0080088618869694600F0080001
:10154000049000922846FFF769F9002205211E2029
:10155000FFF704FB1E20A5E7154A9042A4D1C869F5
:1015600040F00800C861C86900F00800049088696C
:1015700040F0040088618869694600F00400049026
:10158000032000901846FFF749F900220521322078
:10159000FFF7E4FA322085E700100240000801401E
:1015A000000C014000040040000001400008004021
:1015B000000C004070472DE9F04104460068C66801
:1015C00005694FF00007A90713D5B10711D5F91E1A
:1015D000016101202077206880698007204602D0C1
:1015E000FFF7E8FF04E000F0BDF8204600F062F9E4
:1015F0002777680716D5700714D521686FF00400A7
:101600000861022020772068806910F4407F20461E
:1016100002D0FFF7CFFF04E000F0A4F8204600F06E
:1016200049F92777280715D5300713D521686FF0BA
:1016300008000861042020772068C06980072046E0
:1016400002D0FFF7B7FF04E000F08CF8204600F06E
:1016500031F92777E80616D5F00614D521686FF022
:1016600010000861082020772068C06910F4407FCE
:10167000204602D0FFF79EFF04E000F073F82046FA
:1016800000F018F92777E80708D0F00706D021689E
:101690006FF001000861204600F00EF9280608D519
:1016A000300606D521686FF0800008612046FFF7FC
:1016B00013FD680608D5700606D521686FF0400056
:1016C0000861204600F002F9A8060AD5B00608D540
:1016D00021686FF0200008612046BDE8F041FFF767
:1016E000FCBCBDE8F081000000B585B00021009190
:1016F000019102910391164B0268164802219A4209
:101700000FD1826942F0040282618069039100F086
:10171000040004904FF47060CDE9000169460E4862
:1017200011E00E4B9A4210D1826942F010028261A0
:101730008069039100F0100004904FF47070CDE9BF
:10174000000169460648FFF769F805B000BD0000D2
:10175000002C01400010024000080140003401400C
:1017600000100140704770B5044690F83C00002618
:101770000D4601280FD0012084F83C006AB1042AEC
:101780001DD0082A2FD00C2A3FD00126002084F833
:101790003C00304670BD022070BD206800F0B6FDF0
:1017A0002068816941F0080181612068816921F028
:1017B00004018161206881692A69114311E0206870
:1017C00000F0D4FD2068816941F4006181612068E6
:1017D000816921F480618161206881692A6941EA17
:1017E00002218161D2E7206800F0F6FD2068C1691E
:1017F00041F00801C1612068C16921F00401C161A3
:101800002068C1692A69114311E0206800F018FEC0
:101810002068C16941F40061C1612068C16921F497
:101820008061C1612068C1692A6941EA0221C16100
:10183000ACE710B5040003D094F83D0010B107E008
:10184000012010BD002084F83C00204600F01EF866
:10185000022084F83D00211D206800F0F7FC0120E3
:1018600084F8460084F83E0084F83F0084F8400085
:1018700084F8410084F8420084F8430084F844006E
:1018800084F8450084F83D00002010BD08B50068CC
:101890000649884208D10648816941F400518161B6
:1018A000806900F40050009008BD00000034014041
:1018B000001002407047000000680349884201D1CF
:1018C000FFF7B4B87047000000140040704770473D
:1018D00070470000F8B5016804460868CA684B699B
:1018E00010F00F0F4FF0000559D003F0010602F47D
:1018F0009077374365D0C10705D0D10503D5616C1A
:1019000041F001016164410705D5D90703D0616C3D
:1019100041F002016164810705D5D90703D0616CEC
:1019200041F004016164010707D502F02001314351
:1019300003D0616C41F008016164616C00293AD008
:10194000800604D5900602D5204600F0F3FD2068FD
:101950004069616CC0F38010090700D460B3204671
:1019600000F0C1FD20684069400621D52068143090
:1019700050E8001F21F0400140E80012002AF5D194
:10198000E06BA8B16D494163E06BFEF74DFD0028A7
:1019900011D0E06B416B01B0BDE8F0400847830611
:1019A0000FD593060DD52046BDE8F84000F0C2BD26
:1019B0002046FFF78DFFF8BD2046FFF789FF6564DD
:1019C000F8BD266B2023012E7CD1C6067AD5D6061B
:1019D00078D508684868009048694FF002064006CC
:1019E00040D5E16B086840680004000CE8D0A28D87
:1019F0008242E5D9E085886920282DD020680C3006
:101A000050E8001F21F4807140E80012002AF5D14F
:101A10002068143050E8001F21F0010140E8001256
:101A2000002AF5D12068143050E8001F21F0400151
:101A300040E80012002AF5D184F84230256320687E
:101A40000C3050E8001F21F0100140E80012002A7D
:101A5000F5D1E06BFEF7C5FC6663A08DE18D401A01
:101A600081B22AE0A08DE18D401A81B2E08D00287C
:101A7000A6D00029A4D022680C3252E8000F20F42E
:101A8000907042E80007002FF5D12068143050E82C
:101A9000002F22F0010240E80027002FF5D184F842
:101AA0004230256320680C3050E8002F22F01002ED
:101AB00040E80023002BF5D166632046FFF707FFBF
:101AC000F8BDFFE705062BD5150629D594F841008A
:101AD0002128F5D1A068B0F5805F01D12069B0B1AF
:101AE000206A411C2162216800784860E08C401E19
:101AF0000004000CE084E3D12068C16821F080017B
:101B0000C1602068C16841F04001C160D8E7206A27
:101B10000088C0F308004860206A801C2062E5E766
:101B20004006CDD55006CBD5CA68204622F04002EB
:101B3000CA6084F8413000F08EF8C1E7D72400086D
:101B400070B5040004D094F84100002510B106E0FF
:101B5000012070BD84F84050204600F023F8242076
:101B600084F841002068C16821F40051C16020461A
:101B700000F042FD2068016921F490410161206874
:101B8000416921F02A0141612068C16841F4005196
:101B9000C1606564202084F8410084F842006563D8
:101BA000002070BD70B586B00025064600950195F1
:101BB000029503950068224988423ED12149C869AF
:101BC00040F48020C861C86900F4802004908869CE
:101BD00040F00800886188691B4C00F00800049000
:101BE00008150090022001900320039069462046CA
:101BF000FEF714FEE014CDE9000569462046029583
:101C0000FEF70CFE124C1148C4E900058020C4E91F
:101C1000025025616561A5612046E561FEF7C0FDC2
:101C200008B1FEF7DCFBF463002205212720666281
:101C3000FEF794FF2720FEF783FF06B070BD00007B
:101C40000048004000100240000C014030000240FB
:101C50001805002070477047FEE70000094808B5E6
:101C6000416941F0010141614069002200F0010039
:101C7000009005210D20FEF771FFBDE808400D2002
:101C8000FEF75EBF0010024010B596B01C2211494D
:101C90006846FEF707FB0021684600F04FFD0E4C3A
:101CA0000C491C2220601C3107A8FEF7FBFA00211A
:101CB00007A800F043FD074960601C2238310EA8D8
:101CC000FEF7F0FA00210EA800F038FDA06016B073
:101CD00010BD0000783100080000002030B585B04C
:101CE00000241C480094019402940394816941F0FB
:101CF00020018161816901F020010491816941F035
:101D000004018161816901F004010491816941F05C
:101D100008018161816901F008010491816941F044
:101D20001001816180690C4D00F0100004900022C8
:101D300030212846FEF76EFE302000900120CDE9CC
:101D400001040220039069462846FEF767FD05B0AE
:101D500030BD0000001002400008014010B596B0F0
:101D600000240F9410941194129413941C2168462B
:101D70001494FEF7C9FA202107A8FEF7C5FA3648E1
:101D80003449016040F2CF21C0E9011440F2CF7123
:101D9000C0E9031444618461FFF708FA08B1FEF753
:101DA0001EFB4FF480500F900FA92B48FFF78CFAC1
:101DB00008B1FEF714FB2848FFF73BFD08B1FEF71A
:101DC0000EFB139413A924481494FFF7B1F908B13A
:101DD000FEF705FB6020CDE900040294039404940F
:101DE0000594002269461C480694FFF7BCFC08B124
:101DF000FEF7F5FA32200190042269461648FFF7F3
:101E0000B2FC08B1FEF7EBFA0822694612480194C9
:101E1000FFF7A9FC08B1FEF7E2FA0C2269460E486A
:101E2000FFF7A1FC08B1FEF7DAFA079408940994C9
:101E30004FF400500A94CDE90B4007A906480E94D0
:101E4000FFF74CF908B1FEF7CAFA0348FFF74CFC5C
:101E500016B010BD002C0140D802002010B58CB087
:101E600024216846FEF750FA0024154809944FF0E3
:101E700080410A94C0E9001444F62061C0E902419F
:101E8000046184610320CDE900040120CDE902044E
:101E90000494CDE905400794694609480894FFF782
:101EA00081FA08B1FEF79BFA099409A904480A943B
:101EB000FFF73EF9002801D0FEF791FA0CB010BDF3
:101EC0002003002010B58CB024216846FEF71CFAD0
:101ED00000241648099414490A94C0E9001444F6F1
:101EE0002061C0E90241046184610320CDE900045E
:101EF0000120CDE902040494CDE905400794694628
:101F00000A480894FFF74EFA08B1FEF768FA0994F8
:101F100009A906480A94FFF70BF9002801D0FEF73B
:101F20005EFA0CB010BD0000000400406803002001
:101F300010B58CB024216846FEF7E6F90024164857
:101F4000099414490A94C0E9001444F62061C0E9D8
:101F50000241046184610320CDE900040120CDE940
:101F600002040494CDE90540079469460A480894A0
:101F7000FFF718FA08B1FEF732FA099409A90648E2
:101F80000A94FFF7D5F8002801D0FEF728FA0CB024
:101F900010BD000000080040B003002010B58CB058
:101FA00024216846FEF7B0F9002416480994144924
:101FB0000A94C0E9001444F62061C0E902410461BA
:101FC00084610320CDE900040120CDE902040494DA
:101FD000CDE90540079469460A480894FFF7E2F9FD
:101FE00008B1FEF7FCF9099409A906480A94FFF71D
:101FF0009FF8002801D0FEF7F2F90CB010BD0000E8
:10200000000C0040F80300201CB500240F48009489
:102010000D490194016040F2CF21C0E9011442F260
:102020000F718461C160FFF7C1F808B1FEF7D7F9FD
:102030000094694605480194FFF77AF8002801D01A
:10204000FEF7CDF91CBD0000001000404004002048
:1020500010B592B000240F941C2168461094FEF72E
:1020600053F9202107A8FEF74FF92C482A49C0E967
:1020700000144FF46161C0E902410461446184616C
:10208000FFF7D7FB08B1FEF7AAF90F940FA9234871
:102090001094FFF74DF808B1FEF7A1F96020CDE9E3
:1020A00000040294039404940594002269461B489A
:1020B0000694FFF758FB08B1FEF791F90422694630
:1020C0001648FFF750FB08B1FEF789F90822694668
:1020D0001248FFF748FB08B1FEF781F90C22694668
:1020E0000E48FFF740FB08B1FEF779F90794089412
:1020F00009944FF400500A94CDE90B4007A9074812
:102100000E94FEF7EBFF08B1FEF769F90348FFF7FD
:10211000EBFA12B010BD000000340140880400202A
:102120000C4810B50A4901604FF416514160002176
:1021300081600C22C160C0E904128161C161FFF7B6
:10214000FFFC002803D0BDE81040FEF748B910BDE1
:1021500000480040D0040020FEE7FEE7012000F028
:10216000E1FAFBE710B5012000F0DCFAFBE710B55F
:10217000012000F0D7FAFBE710B5502080F311885A
:10218000BFF34F8FBFF36F8F00F02EFF18B10449DC
:102190004FF080500860002080F3118810BD0000CF
:1021A00004ED00E030B58FB028216846FEF7ACF8AA
:1021B00014210AA8FEF7A8F801210804CDE90010AF
:1021C0000024029402250491CDE907504FF4E01059
:1021D00009906846FEF7F0FD08B172B6FEE70F20E1
:1021E000CDE90A054FF48060CDE90C4002210AA830
:1021F0000E94FEF7E5FC002801D072B6FEE70FB0A2
:1022000030BD70470148FFF7D6B900002003002019
:102210000148FFF7D0B90000680300200148FFF72C
:10222000CAB90000B00300200148FFF7C4B900009C
:10223000F80300200148FFF7BEB900004004002069
:102240000148FFF7B8B900005C050020F0B502684E
:10225000204C214D214E224F224B4FF0804CA0426A
:1022600009D0984207D0604505D0A84203D0B042BB
:1022700001D0B84204D122F0700E4A6842EA0E0240
:10228000A04209D0984207D0604505D0A84203D0AB
:10229000B04201D0B84203D122F44075CA682A4343
:1022A0004D6922F080022A4302608A68C2620A688D
:1022B0008262A04201D0984201D1096901630121E3
:1022C00041610169C90703D0016921F00101016180
:1022D000F0BD0000002C0140000400400008004058
:1022E000000C00400034014010B5846842EA03222B
:1022F00024F47F440A432243826010BD826822F0A6
:1023000070020A4342F0070181607047F0B5036A2A
:10231000026A22F00102026242688469124E24F0CD
:1023200073050C682C4323F002058B682B430D4D7D
:10233000A84201D0B04205D123F00807CB683B4347
:1023400023F00403A84201D0B04205D14D6922F424
:10235000407215438A692A43426084614968416337
:102360000362F0BD002C014000340140F0B5026A68
:10237000036A23F010030362436884690D6824F440
:10238000E64444EA05248D6822F0200242EA051260
:102390000F4D104EA84201D0B04206D1CF6822F0B6
:1023A000800242EA071222F04002A84201D0B04265
:1023B00007D14D6923F4406343EA85038D6943EAFD
:1023C000850343608461496881630262F0BD000057
:1023D000002C014000340140F0B5026A036A23F486
:1023E000807303624368C46922F4007224F07305A9
:1023F0000C68124E2C438D6842EA05220E4DA8420D
:1024000001D0B04206D1CF6822F4006242EA07222E
:1024100022F48062A84201D0B04207D14D6923F472
:10242000405343EA05138D6943EA05134360C461D1
:102430004968C1630262F0BD002C014000340140D4
:1024400030B5046A026A22F4805202624268C369AB
:102450000D6823F4E64343EA05238D6824F4005411
:1024600044EA0534084DA84202D0084DA84204D1E0
:102470004D6922F4804242EA85124260C361496894
:102480000164046230BD0000002C014000340140B2
:1024900010B5036A046A24F001040462846924F01C
:1024A000F00444EA021423F00A020A43846102623F
:1024B00010BD10B5036A046A24F010040462846934
:1024C00023F0A00324F4704444EA023243EA0111E9
:1024D0008261016210BD10B5406A0021C185C184CE
:1024E000FFF7F6F910BD01680C3151E8002F22F416
:1024F000907241E80023002BF5D10168143151E8B6
:10250000002F22F0010241E80023002BF5D1016BDE
:10251000012909D101680C3151E8002F22F0100285
:1025200041E80023002BF5D1202180F84210002142
:102530000163704708B590F84210222901D00220AB
:1025400008BD82684FF480539A4201D1016921B1DC
:10255000816A9A421BD04AB10AE00268816A5268D5
:10256000C2F308020A80816A891C08E0026972B11C
:102570000268526802F07F020A70816A491C816217
:10258000C18D491E0904090CC18503D01BE00268F6
:102590005268F1E70168CA6822F02002CA60016847
:1025A000CA6822F48072CA6001684A6922F0010296
:1025B0004A61202180F8421000214163026B012A08
:1025C00003D0FFF747FB002008BD016301680C3111
:1025D00051E8002F22F0100241E80023002BF5D132
:1025E00001680A68D20602D50A6849680091818D9F
:1025F000FFF76DF9E7E7000070B504460068016970
:10260000E26821F44051114301612169A068084347
:10261000616908432168CA6841F20C639A43024326
:10262000CA6020684169A26921F440711143416187
:102630001E492068884202D1FEF788FB01E0FEF7C0
:1026400075FB00EBC00101EB0012606864218000A3
:10265000B2FBF0F3B3FBF1F36FF018067343B2FB78
:10266000F0F5B2FBF0F605EB8305322303EB05151D
:10267000B5FBF1F5B6FBF1F605F0F00505EB061537
:10268000B2FBF0F6B2FBF0F0B0FBF1F06FF0180225
:10269000504306EB800003EB0010B0FBF1F0216823
:1026A00000F00F002844886070BD00000038014031
:1026B0000148FFF70FB90000D0040020FEE709072A
:1026C000090E002804DB00F1E02080F800147047B8
:1026D00000F00F0000F1E02080F8141D7047FEF7B5
:1026E000ADF9FFF75FFDFFF7F9FAFFF7B7FAFFF76C
:1026F00035FBFFF7B3FBFFF7E5FBFFF719FCFFF72F
:102700004DFCFFF781FCFFF7A3FCFFF709FDFFF786
:10271000BBFA00F00EF8FEE701460020842900D045
:10272000C81C704710B500B9012000F01FFB002045
:1027300010BD10B500F040FB002010BD7FB50D4668
:1027400004464169B0F9080081B1A16971B1FFF790
:10275000E3FFD4E905128DE80700D4E900102B4609
:10276000226900F016FC039004B070BDFFF7D4FF9F
:1027700003A9CDE90001208A2B4682B2D4E90010DA
:1027800000F0DAFB012801D00020EDE70398EBE729
:102790002DE9F041184C0F460546E6682068001DFB
:1027A00000F01CFA38B9206890F82C1001208840FD
:1027B000216981432161681C07D137B12168BDE8D7
:1027C000F0410E48091D00F04DBA20683544B5426D
:1027D0004560216805D2A06BBDE8F041091D00F0FD
:1027E00029BA606B091D00F025FAA06A854200D263
:1027F000A562BDE8F08100001C00002080060020DA
:102800002DE9F041054600F039FA2E4CA068401C35
:10281000A06020682C4F10B1606940B32DE02560A6
:10282000A068012829D1002606EB860007EB80006E
:1028300000F0F2F9761C072EF6D323488C3000F016
:10284000EBF92148A03000F0E7F91F48B43000F060
:10285000E3F91D48C83000F0DFF91B48DC3000F018
:10286000DBF919488C3060631430A06305E0206800
:10287000E96AC06A884200D82560606A401C6062CC
:10288000E96A0120226988401043206101EB810040
:1028900007EB8000291D00F0E5F900F00FFA6069F0
:1028A00000280CD02068E96AC06A884207D207492C
:1028B0004FF080500860BFF34F8FBFF36F8FBDE8BC
:1028C000F08100001C000020A405002004ED00E0C1
:1028D00010B5044690F8510058B101280CD00228D8
:1028E0000FD0502080F31188BFF34F8FBFF36F8F4D
:1028F000FEE7206B00F0F6F92046BDE8104000F03E
:10290000F1B910BD10484FF44061420706D0C01D18
:102910000D4920F00700411AC1F540610B4A002320
:102920000144C2E900030839183A21F00701116097
:102930004B600B600B1AC0E9001393604FF000402E
:102940005360506170470000940600207000002022
:10295000144E154CA6F1C8074FF08058DFF84C9084
:1029600012E000BF00F08AF9F068C568281D00F089
:1029700035F9A068401EA0606068401E606000F0ED
:102980009DF92846FFF7A4FF60680028EAD138685F
:102990000128F9D9C9F80080BFF34F8FBFF36F8FBB
:1029A000F2E700006C0600201C00002004ED00E0AF
:1029B0002DE9F0479A46DDE9098481466FF003036B
:1029C000206B03EB82021044089E20F00707780773
:1029D00007D0502080F31188BFF34F8FBFF36F8F64
:1029E000FEE7002561B1002023180A5C83F834203B
:1029F0000A5C12B1401C1028F6D384F8435001E061
:102A000084F83450072E00D30626E662C4E9116527
:102A1000201D00F00CF904F1180000F008F9246101
:102A2000C6F107006462A061E56484F85050524624
:102A30004946384600F0C0F82060B8F1000F01D0D8
:102A4000C8F80040BDE8F08730B5114900E01146F4
:102A50000A688242FBD34B685C18844203D1406809
:102A600018444860084643681C18944209D1084C31
:102A7000183C2468A24209D052681A4442600A688D
:102A800012680260814200D0086030BD0460F9E73E
:102A9000700000200648416B096829B1416BC96884
:102AA000C9684968816270474FF0FF31FAE700005A
:102AB0001C00002008484068401C4FF0500080F384
:102AC000118804D0BFF34F8FBFF36F8FFEE7BFF3C2
:102AD0004F8FBFF36F8FFEE7780000202DE9F041A4
:102AE0000546002700F09EF9324E306808B9FFF71E
:102AF00009FF706905424ED1C5B3083568070ED08D
:102B000005F00700C0F108000544680707D0502011
:102B100080F31188BFF34F8FBFF36F8FFEE72DB3A4
:102B20007068854237D82348183001460C6801E0A8
:102B300020460C466168A94202D221680029F7D1DB
:102B400031688C4227D007682168016060680837C7
:102B5000411B10290FD96019420708D0502080F37B
:102B60001188BFF34F8FBFF36F8FFEE713E0416013
:102B70006560FFF769FF61687068401A7060B2684D
:102B8000904200D2B060706901430020C4E90001A6
:102B9000F068401CF06000F08DFA780707D05020F4
:102BA00080F31188BFF34F8FBFF36F8FFEE7384676
:102BB000BDE8F0815800002010B5031F4FF080746D
:102BC0001C601B1F21F001011960191F024B0B60D3
:102BD000143940380A6010BDB52A0008D0E9013226
:102BE00001699A60D0E901235A604A68824201D1A2
:102BF00082684A60002202610868401E0860086816
:102C000070470000034B036003F15400086080200C
:102C1000106070478400002000F108014FF0FF327F
:102C2000C0E90112C160016100210160704700210B
:102C30000161704730B50B685A1C02D000F10802E0
:102C400002E0026904E02246546825689D42FAD9F0
:102C500053684B6099608A60516008610168491C43
:102C6000016030BD42684A6093688B609368596028
:102C7000916008610168491C01607047502080F331
:102C80001188BFF34F8FBFF36F8F0A494868401C0C
:102C9000486001280CD10848006810F0FF0F07D0E9
:102CA000502080F31188BFF34F8FBFF36F8FFEE783
:102CB000704700007800002004ED00E008494868F3
:102CC00028B1401E486001D180F311887047502020
:102CD00080F31188BFF34F8FBFF36F8FFEE70000C3
:102CE0007800002070B500282AD0164DA0F1080405
:102CF00060686969084207D1502080F31188BFF3EA
:102D00004F8FBFF36F8FFEE722683AB1502080F3F8
:102D10001188BFF34F8FBFF36F8FFEE7884360606A
:102D200000F080F860686968084468602046FFF732
:102D30008BFE2869401C2861BDE8704000F0BAB9DC
:102D400070BD0000580000204FF0E020002101611C
:102D5000816105494FF47A720968B1FBF2F1491EAD
:102D600041610721016170471800002010B5020081
:102D700014D00F48006B38B1502080F31188BFF396
:102D80004F8FBFF36F8FFEE700F04CF80021104625
:102D9000FFF7FEFC00F08EF9002807D105494FF03F
:102DA00080500860BFF34F8FBFF36F8F10BD0000DE
:102DB0001C00002004ED00E010B586B00024039450
:102DC00005AA04A903A80494FFF71CFFDDE9030189
:102DD0000094CDE9011000230EA11048059A00F0DF
:102DE000D8F80F490028C86211D0502080F311880C
:102DF000BFF34F8FBFF36F8F4FF0FF30886201201A
:102E00004861CC6006B0BDE8104000F041B806B0A3
:102E100010BD000049444C45000000005129000845
:102E20001C0000200248016B491C01637047000030
:102E30001C0000201448016B11B10121C1617047D1
:102E40000021C1610169B1FA81F1C1F11F0101EBFA
:102E500081020E4951F822306BB101EB820101F180
:102E600008034A6852684A609A4201D152684A602F
:102E7000D16801607047502080F31188BFF34F8FF5
:102E8000BFF36F8FFEE700001C000020A4050020A8
:102E90001CB5264908780190FF20087008788DF845
:102EA00000009DF800009DF8002000F0F000904226
:102EB00007D0502080F31188BFF34F8FBFF36F8F7F
:102EC000FEE79DF800001A4C00F05000207007202B
:102ED000A06005E09DF8002052008DF80020401E03
:102EE0009DF800201206F5D4A060032807D05020DA
:102EF00080F31188BFF34F8FBFF36F8FFEE74FF45E
:102F00004070A060019808700A48016841F470019F
:102F10000160016841F070410160FFF715FF00207A
:102F20006060FDF765F900201CBD000000E400E0D2
:102F30007800002020ED00E02DE9FF5F8346DDE909
:102F40000E87994616468A469000FFF7C7FD050092
:102F50001CD05420FFF7C2FD040014D000202563CC
:102F600084F85100CDE90240CDE900874B46324656
:102F700051465846FFF71CFD2046FFF741FC012053
:102F800004B0BDE8F09F2846FFF7ACFE4FF0FF30DD
:102F9000F6E7F0B585B0DDE90B640A9DA6B1DCB1BA
:102FA000542700972663022684F85160002604AF58
:102FB000CDE90246CDE90057FFF7FAFC2046FFF7BE
:102FC0001FFC049805B0F0BD502080F31188BFF3BA
:102FD0004F8FBFF36F8FFEE7502080F31188BFF350
:102FE0004F8FBFF36F8FFEE72DE9F0412F4C002686
:102FF000206B28B1A069401CA0613046BDE8F0817B
:10300000E5686D1CE56013D1606B006838B1502035
:1030100080F31188BFF34F8FBFF36F8FFEE7606BB4
:10302000A16B6163A063206A401C2062FFF732FD40
:10303000A06ADFF87C80854209D3606B0068A0B18C
:10304000606BC068C7687868854211D2A06220684A
:10305000C06A00EB800158F82100012800D9012640
:10306000E0690028C9D00126C7E74FF0FF30EDE73F
:10307000381DFFF7B3FDB86A18B107F11800FFF764
:10308000ADFDF96A0120226988401043206101EBFF
:10309000810108EB8100391DFFF7E4FDF86A216822
:1030A000C96A8842C9D30126C7E700001C00002076
:1030B000A40500202DE9F0472C4D00242746286B5D
:1030C00038B1FFF7DBFD286B401E2863286B40B149
:1030D00046E0502080F31188BFF34F8FBFF36F8F0E
:1030E000FEE7A968224E0120D1B3A6F1B4098046BB
:1030F0003068E8B1F068C46804F11800FFF76EFDAD
:10310000201DFFF76BFDE06A2A6908FA00F1114300
:10311000296100EB800109EB8100211DFFF7A2FD71
:10312000E06A2968C96A8842E2D3C5F81C80DFE7F3
:103130000CB1FFF7AFFCAC6944B14646FFF754FF52
:1031400000B1EE61641EF9D10020A861E86938B1D0
:103150000849012738070860BFF34F8FBFF36F8F0F
:10316000FFF7ACFD3846BDE8F08700001C000020EA
:103170005806002004ED00E0103200085D21000830
:1031800000000000000000008000000000000000BF
:1031900000000000043200086F210008FFFF00005B
:1031A000000000008000000000000000000000009F
:1031B000F83100086521000801000000000000004F
:1031C0008000000000000000000000000102020377
:1031D0000405060708090A0B0C0D0E0F101000005D
:1031E00000000000000001020304060708090000B7
:1031F00000000102030400004D6F746F725F5461A0
:10320000736B0000536572766F5461736B0000003E
:1032100064656661756C745461736B003C320008C0
:1032200000000020840000006C010008C03200088B
:1032300084000020741800008801000800000000CD
:10324000000000000000000001000000100000006D
:103250000000000000127A000000000000000000E2
:10326000000000000000000000000000000000005E
:10327000000000000000000000000000000000004E
:10328000000000000000000000000000000000003E
:10329000000000000000000000000000000000002E
:1032A000000000000000000000000000000000001E
:1032B0000000000000000000AAAAAAAA0000000066
:0400000508000131BD
:00000001FF
